{"contracts/solidity/TestSimple.sol":{"TestSimple":{"abi":[{"inputs":[{"internalType":"address payable","name":"_feeWallet","type":"address"},{"internalType":"address","name":"_router","type":"address"},{"internalType":"uint16","name":"_fee","type":"uint16"},{"internalType":"address","name":"_token","type":"address"}],"stateMutability":"nonpayable","type":"constructor"},{"inputs":[],"name":"fee","outputs":[{"internalType":"uint16","name":"","type":"uint16"}],"stateMutability":"view","type":"function"},{"inputs":[],"name":"feeWallet","outputs":[{"internalType":"address","name":"","type":"address"}],"stateMutability":"view","type":"function"},{"inputs":[],"name":"getFee","outputs":[{"internalType":"uint16","name":"","type":"uint16"}],"stateMutability":"view","type":"function"},{"inputs":[],"name":"router","outputs":[{"internalType":"address","name":"","type":"address"}],"stateMutability":"view","type":"function"},{"inputs":[],"name":"token","outputs":[{"internalType":"address","name":"","type":"address"}],"stateMutability":"view","type":"function"}],"evm":{"bytecode":{"linkReferences":{},"object":"608060405234801561001057600080fd5b5060405161022a38038061022a83398101604081905261002f916100a2565b600080546001600160a01b039586166001600160a01b0319918216179091556001805461ffff909416600160a01b026001600160b01b0319909416948616949094179290921790925560028054929093169116179055610108565b6001600160a01b038116811461009f57600080fd5b50565b600080600080608085870312156100b857600080fd5b84516100c38161008a565b60208601519094506100d48161008a565b604086015190935061ffff811681146100ec57600080fd5b60608601519092506100fd8161008a565b939692955090935050565b610113806101176000396000f3fe6080604052348015600f57600080fd5b506004361060505760003560e01c8063ced72f87146055578063ddca3f4314607c578063f25f4b56146090578063f887ea401460b9578063fc0c546a1460cb575b600080fd5b600154600160a01b900461ffff165b60405161ffff90911681526020015b60405180910390f35b600154606490600160a01b900461ffff1681565b60005460a2906001600160a01b031681565b6040516001600160a01b0390911681526020016073565b60015460a2906001600160a01b031681565b60025460a2906001600160a01b03168156fea26469706673582212205dc7461547c44436cc703f4dac19d0a9a0fba3b34a246e5bb83e150cab4752c864736f6c63430008130033","opcodes":"PUSH1 0x80 PUSH1 0x40 MSTORE CALLVALUE DUP1 ISZERO PUSH2 0x10 JUMPI PUSH1 0x0 DUP1 REVERT JUMPDEST POP PUSH1 0x40 MLOAD PUSH2 0x22A CODESIZE SUB DUP1 PUSH2 0x22A DUP4 CODECOPY DUP2 ADD PUSH1 0x40 DUP2 SWAP1 MSTORE PUSH2 0x2F SWAP2 PUSH2 0xA2 JUMP JUMPDEST PUSH1 0x0 DUP1 SLOAD PUSH1 0x1 PUSH1 0x1 PUSH1 0xA0 SHL SUB SWAP6 DUP7 AND PUSH1 0x1 PUSH1 0x1 PUSH1 0xA0 SHL SUB NOT SWAP2 DUP3 AND OR SWAP1 SWAP2 SSTORE PUSH1 0x1 DUP1 SLOAD PUSH2 0xFFFF SWAP1 SWAP5 AND PUSH1 0x1 PUSH1 0xA0 SHL MUL PUSH1 0x1 PUSH1 0x1 PUSH1 0xB0 SHL SUB NOT SWAP1 SWAP5 AND SWAP5 DUP7 AND SWAP5 SWAP1 SWAP5 OR SWAP3 SWAP1 SWAP3 OR SWAP1 SWAP3 SSTORE PUSH1 0x2 DUP1 SLOAD SWAP3 SWAP1 SWAP4 AND SWAP2 AND OR SWAP1 SSTORE PUSH2 0x108 JUMP JUMPDEST PUSH1 0x1 PUSH1 0x1 PUSH1 0xA0 SHL SUB DUP2 AND DUP2 EQ PUSH2 0x9F JUMPI PUSH1 0x0 DUP1 REVERT JUMPDEST POP JUMP JUMPDEST PUSH1 0x0 DUP1 PUSH1 0x0 DUP1 PUSH1 0x80 DUP6 DUP8 SUB SLT ISZERO PUSH2 0xB8 JUMPI PUSH1 0x0 DUP1 REVERT JUMPDEST DUP5 MLOAD PUSH2 0xC3 DUP2 PUSH2 0x8A JUMP JUMPDEST PUSH1 0x20 DUP7 ADD MLOAD SWAP1 SWAP5 POP PUSH2 0xD4 DUP2 PUSH2 0x8A JUMP JUMPDEST PUSH1 0x40 DUP7 ADD MLOAD SWAP1 SWAP4 POP PUSH2 0xFFFF DUP2 AND DUP2 EQ PUSH2 0xEC JUMPI PUSH1 0x0 DUP1 REVERT JUMPDEST PUSH1 0x60 DUP7 ADD MLOAD SWAP1 SWAP3 POP PUSH2 0xFD DUP2 PUSH2 0x8A JUMP JUMPDEST SWAP4 SWAP7 SWAP3 SWAP6 POP SWAP1 SWAP4 POP POP JUMP JUMPDEST PUSH2 0x113 DUP1 PUSH2 0x117 PUSH1 0x0 CODECOPY PUSH1 0x0 RETURN INVALID PUSH1 0x80 PUSH1 0x40 MSTORE CALLVALUE DUP1 ISZERO PUSH1 0xF JUMPI PUSH1 0x0 DUP1 REVERT JUMPDEST POP PUSH1 0x4 CALLDATASIZE LT PUSH1 0x50 JUMPI PUSH1 0x0 CALLDATALOAD PUSH1 0xE0 SHR DUP1 PUSH4 0xCED72F87 EQ PUSH1 0x55 JUMPI DUP1 PUSH4 0xDDCA3F43 EQ PUSH1 0x7C JUMPI DUP1 PUSH4 0xF25F4B56 EQ PUSH1 0x90 JUMPI DUP1 PUSH4 0xF887EA40 EQ PUSH1 0xB9 JUMPI DUP1 PUSH4 0xFC0C546A EQ PUSH1 0xCB JUMPI JUMPDEST PUSH1 0x0 DUP1 REVERT JUMPDEST PUSH1 0x1 SLOAD PUSH1 0x1 PUSH1 0xA0 SHL SWAP1 DIV PUSH2 0xFFFF AND JUMPDEST PUSH1 0x40 MLOAD PUSH2 0xFFFF SWAP1 SWAP2 AND DUP2 MSTORE PUSH1 0x20 ADD JUMPDEST PUSH1 0x40 MLOAD DUP1 SWAP2 SUB SWAP1 RETURN JUMPDEST PUSH1 0x1 SLOAD PUSH1 0x64 SWAP1 PUSH1 0x1 PUSH1 0xA0 SHL SWAP1 DIV PUSH2 0xFFFF AND DUP2 JUMP JUMPDEST PUSH1 0x0 SLOAD PUSH1 0xA2 SWAP1 PUSH1 0x1 PUSH1 0x1 PUSH1 0xA0 SHL SUB AND DUP2 JUMP JUMPDEST PUSH1 0x40 MLOAD PUSH1 0x1 PUSH1 0x1 PUSH1 0xA0 SHL SUB SWAP1 SWAP2 AND DUP2 MSTORE PUSH1 0x20 ADD PUSH1 0x73 JUMP JUMPDEST PUSH1 0x1 SLOAD PUSH1 0xA2 SWAP1 PUSH1 0x1 PUSH1 0x1 PUSH1 0xA0 SHL SUB AND DUP2 JUMP JUMPDEST PUSH1 0x2 SLOAD PUSH1 0xA2 SWAP1 PUSH1 0x1 PUSH1 0x1 PUSH1 0xA0 SHL SUB AND DUP2 JUMP INVALID LOG2 PUSH5 0x6970667358 0x22 SLT KECCAK256 0x5D 0xC7 CHAINID ISZERO SELFBALANCE 0xC4 PREVRANDAO CALLDATASIZE 0xCC PUSH17 0x3F4DAC19D0A9A0FBA3B34A246E5BB83E15 0xC 0xAB SELFBALANCE MSTORE 0xC8 PUSH5 0x736F6C6343 STOP ADDMOD SGT STOP CALLER "},"methodIdentifiers":{"fee()":"ddca3f43","feeWallet()":"f25f4b56","getFee()":"ced72f87","router()":"f887ea40","token()":"fc0c546a"}}}}}