{"contracts/solidity/TestNoParams.sol":{"TestNoParams":{"abi":[{"inputs":[],"stateMutability":"nonpayable","type":"constructor"},{"inputs":[],"name":"getValue","outputs":[{"internalType":"uint256","name":"","type":"uint256"}],"stateMutability":"view","type":"function"},{"inputs":[],"name":"owner","outputs":[{"internalType":"address","name":"","type":"address"}],"stateMutability":"view","type":"function"},{"inputs":[],"name":"value","outputs":[{"internalType":"uint256","name":"","type":"uint256"}],"stateMutability":"view","type":"function"}],"evm":{"bytecode":{"linkReferences":{},"object":"608060405234801561001057600080fd5b50600080546001600160a01b03191633179055602a60015560bf806100366000396000f3fe6080604052348015600f57600080fd5b5060043610603c5760003560e01c8063209652551460415780633fa4f2451460585780638da5cb5b146060575b600080fd5b6001545b6040519081526020015b60405180910390f35b604560015481565b6000546072906001600160a01b031681565b6040516001600160a01b039091168152602001604f56fea26469706673582212200f3a2305ca05df13f203f1043f2f45b95228b81ddd256fbd3cf2e0fff23fdb2164736f6c63430008130033","opcodes":"PUSH1 0x80 PUSH1 0x40 MSTORE CALLVALUE DUP1 ISZERO PUSH2 0x10 JUMPI PUSH1 0x0 DUP1 REVERT JUMPDEST POP PUSH1 0x0 DUP1 SLOAD PUSH1 0x1 PUSH1 0x1 PUSH1 0xA0 SHL SUB NOT AND CALLER OR SWAP1 SSTORE PUSH1 0x2A PUSH1 0x1 SSTORE PUSH1 0xBF DUP1 PUSH2 0x36 PUSH1 0x0 CODECOPY PUSH1 0x0 RETURN INVALID PUSH1 0x80 PUSH1 0x40 MSTORE CALLVALUE DUP1 ISZERO PUSH1 0xF JUMPI PUSH1 0x0 DUP1 REVERT JUMPDEST POP PUSH1 0x4 CALLDATASIZE LT PUSH1 0x3C JUMPI PUSH1 0x0 CALLDATALOAD PUSH1 0xE0 SHR DUP1 PUSH4 0x20965255 EQ PUSH1 0x41 JUMPI DUP1 PUSH4 0x3FA4F245 EQ PUSH1 0x58 JUMPI DUP1 PUSH4 0x8DA5CB5B EQ PUSH1 0x60 JUMPI JUMPDEST PUSH1 0x0 DUP1 REVERT JUMPDEST PUSH1 0x1 SLOAD JUMPDEST PUSH1 0x40 MLOAD SWAP1 DUP2 MSTORE PUSH1 0x20 ADD JUMPDEST PUSH1 0x40 MLOAD DUP1 SWAP2 SUB SWAP1 RETURN JUMPDEST PUSH1 0x45 PUSH1 0x1 SLOAD DUP2 JUMP JUMPDEST PUSH1 0x0 SLOAD PUSH1 0x72 SWAP1 PUSH1 0x1 PUSH1 0x1 PUSH1 0xA0 SHL SUB AND DUP2 JUMP JUMPDEST PUSH1 0x40 MLOAD PUSH1 0x1 PUSH1 0x1 PUSH1 0xA0 SHL SUB SWAP1 SWAP2 AND DUP2 MSTORE PUSH1 0x20 ADD PUSH1 0x4F JUMP INVALID LOG2 PUSH5 0x6970667358 0x22 SLT KECCAK256 0xF GASPRICE 0x23 SDIV 0xCA SDIV 0xDF SGT CALLCODE SUB CALL DIV EXTCODEHASH 0x2F GASLIMIT 0xB9 MSTORE 0x28 0xB8 SAR 0xDD 0x25 PUSH16 0xBD3CF2E0FFF23FDB2164736F6C634300 ADDMOD SGT STOP CALLER "},"methodIdentifiers":{"getValue()":"20965255","owner()":"8da5cb5b","value()":"3fa4f245"}}}}}