{"contracts/solidity/TestSimple.sol":{"TestSimple":{"abi":[{"inputs":[{"internalType":"address payable","name":"_feeWallet","type":"address"},{"internalType":"address","name":"_router","type":"address"},{"internalType":"uint16","name":"_fee","type":"uint16"},{"internalType":"address","name":"_token","type":"address"}],"stateMutability":"nonpayable","type":"constructor"},{"inputs":[],"name":"fee","outputs":[{"internalType":"uint16","name":"","type":"uint16"}],"stateMutability":"view","type":"function"},{"inputs":[],"name":"feeWallet","outputs":[{"internalType":"address","name":"","type":"address"}],"stateMutability":"view","type":"function"},{"inputs":[],"name":"getFee","outputs":[{"internalType":"uint16","name":"","type":"uint16"}],"stateMutability":"view","type":"function"},{"inputs":[],"name":"router","outputs":[{"internalType":"address","name":"","type":"address"}],"stateMutability":"view","type":"function"},{"inputs":[],"name":"token","outputs":[{"internalType":"address","name":"","type":"address"}],"stateMutability":"view","type":"function"}],"evm":{"bytecode":{"linkReferences":{},"object":"6080346100cb57601f61025038819003918201601f19168301916001600160401b038311848410176100d0578084926080946040528339810103126100cb5780516001600160a01b038082169290918390036100cb57610061602082016100e6565b60408201519161ffff831683036100cb57606061007e91016100e6565b9160018060a01b031994856000541617600055836001549161ffff60a01b9060a01b1692169060018060b01b03191617176001551690600254161760025560405161015590816100fb8239f35b600080fd5b634e487b7160e01b600052604160045260246000fd5b51906001600160a01b03821682036100cb5756fe608080604052600436101561001357600080fd5b600090813560e01c908163ced72f87146100f857508063ddca3f43146100d3578063f25f4b56146100ac578063f887ea40146100835763fc0c546a1461005857600080fd5b346100805780600319360112610080576002546040516001600160a01b039091168152602090f35b80fd5b50346100805780600319360112610080576001546040516001600160a01b039091168152602090f35b5034610080578060031936011261008057546040516001600160a01b039091168152602090f35b5034610080578060031936011261008057602061ffff60015460a01c16604051908152f35b90503461011b578160031936011261011b5760209061ffff60015460a01c168152f35b5080fdfea2646970667358221220b5871fcb6cb2066bd0868377fc79e44afab8e8e3b7c05ea701913239a575212964736f6c63430008130033","opcodes":"PUSH1 0x80 CALLVALUE PUSH2 0xCB JUMPI PUSH1 0x1F PUSH2 0x250 CODESIZE DUP2 SWAP1 SUB SWAP2 DUP3 ADD PUSH1 0x1F NOT AND DUP4 ADD SWAP2 PUSH1 0x1 PUSH1 0x1 PUSH1 0x40 SHL SUB DUP4 GT DUP5 DUP5 LT OR PUSH2 0xD0 JUMPI DUP1 DUP5 SWAP3 PUSH1 0x80 SWAP5 PUSH1 0x40 MSTORE DUP4 CODECOPY DUP2 ADD SUB SLT PUSH2 0xCB JUMPI DUP1 MLOAD PUSH1 0x1 PUSH1 0x1 PUSH1 0xA0 SHL SUB DUP1 DUP3 AND SWAP3 SWAP1 SWAP2 DUP4 SWAP1 SUB PUSH2 0xCB JUMPI PUSH2 0x61 PUSH1 0x20 DUP3 ADD PUSH2 0xE6 JUMP JUMPDEST PUSH1 0x40 DUP3 ADD MLOAD SWAP2 PUSH2 0xFFFF DUP4 AND DUP4 SUB PUSH2 0xCB JUMPI PUSH1 0x60 PUSH2 0x7E SWAP2 ADD PUSH2 0xE6 JUMP JUMPDEST SWAP2 PUSH1 0x1 DUP1 PUSH1 0xA0 SHL SUB NOT SWAP5 DUP6 PUSH1 0x0 SLOAD AND OR PUSH1 0x0 SSTORE DUP4 PUSH1 0x1 SLOAD SWAP2 PUSH2 0xFFFF PUSH1 0xA0 SHL SWAP1 PUSH1 0xA0 SHL AND SWAP3 AND SWAP1 PUSH1 0x1 DUP1 PUSH1 0xB0 SHL SUB NOT AND OR OR PUSH1 0x1 SSTORE AND SWAP1 PUSH1 0x2 SLOAD AND OR PUSH1 0x2 SSTORE PUSH1 0x40 MLOAD PUSH2 0x155 SWAP1 DUP2 PUSH2 0xFB DUP3 CODECOPY RETURN JUMPDEST PUSH1 0x0 DUP1 REVERT JUMPDEST PUSH4 0x4E487B71 PUSH1 0xE0 SHL PUSH1 0x0 MSTORE PUSH1 0x41 PUSH1 0x4 MSTORE PUSH1 0x24 PUSH1 0x0 REVERT JUMPDEST MLOAD SWAP1 PUSH1 0x1 PUSH1 0x1 PUSH1 0xA0 SHL SUB DUP3 AND DUP3 SUB PUSH2 0xCB JUMPI JUMP INVALID PUSH1 0x80 DUP1 PUSH1 0x40 MSTORE PUSH1 0x4 CALLDATASIZE LT ISZERO PUSH2 0x13 JUMPI PUSH1 0x0 DUP1 REVERT JUMPDEST PUSH1 0x0 SWAP1 DUP2 CALLDATALOAD PUSH1 0xE0 SHR SWAP1 DUP2 PUSH4 0xCED72F87 EQ PUSH2 0xF8 JUMPI POP DUP1 PUSH4 0xDDCA3F43 EQ PUSH2 0xD3 JUMPI DUP1 PUSH4 0xF25F4B56 EQ PUSH2 0xAC JUMPI DUP1 PUSH4 0xF887EA40 EQ PUSH2 0x83 JUMPI PUSH4 0xFC0C546A EQ PUSH2 0x58 JUMPI PUSH1 0x0 DUP1 REVERT JUMPDEST CALLVALUE PUSH2 0x80 JUMPI DUP1 PUSH1 0x3 NOT CALLDATASIZE ADD SLT PUSH2 0x80 JUMPI PUSH1 0x2 SLOAD PUSH1 0x40 MLOAD PUSH1 0x1 PUSH1 0x1 PUSH1 0xA0 SHL SUB SWAP1 SWAP2 AND DUP2 MSTORE PUSH1 0x20 SWAP1 RETURN JUMPDEST DUP1 REVERT JUMPDEST POP CALLVALUE PUSH2 0x80 JUMPI DUP1 PUSH1 0x3 NOT CALLDATASIZE ADD SLT PUSH2 0x80 JUMPI PUSH1 0x1 SLOAD PUSH1 0x40 MLOAD PUSH1 0x1 PUSH1 0x1 PUSH1 0xA0 SHL SUB SWAP1 SWAP2 AND DUP2 MSTORE PUSH1 0x20 SWAP1 RETURN JUMPDEST POP CALLVALUE PUSH2 0x80 JUMPI DUP1 PUSH1 0x3 NOT CALLDATASIZE ADD SLT PUSH2 0x80 JUMPI SLOAD PUSH1 0x40 MLOAD PUSH1 0x1 PUSH1 0x1 PUSH1 0xA0 SHL SUB SWAP1 SWAP2 AND DUP2 MSTORE PUSH1 0x20 SWAP1 RETURN JUMPDEST POP CALLVALUE PUSH2 0x80 JUMPI DUP1 PUSH1 0x3 NOT CALLDATASIZE ADD SLT PUSH2 0x80 JUMPI PUSH1 0x20 PUSH2 0xFFFF PUSH1 0x1 SLOAD PUSH1 0xA0 SHR AND PUSH1 0x40 MLOAD SWAP1 DUP2 MSTORE RETURN JUMPDEST SWAP1 POP CALLVALUE PUSH2 0x11B JUMPI DUP2 PUSH1 0x3 NOT CALLDATASIZE ADD SLT PUSH2 0x11B JUMPI PUSH1 0x20 SWAP1 PUSH2 0xFFFF PUSH1 0x1 SLOAD PUSH1 0xA0 SHR AND DUP2 MSTORE RETURN JUMPDEST POP DUP1 REVERT INVALID LOG2 PUSH5 0x6970667358 0x22 SLT KECCAK256 0xB5 DUP8 0x1F 0xCB PUSH13 0xB2066BD0868377FC79E44AFAB8 0xE8 0xE3 0xB7 0xC0 0x5E 0xA7 ADD SWAP2 ORIGIN CODECOPY 0xA5 PUSH22 0x212964736F6C63430008130033000000000000000000 "},"methodIdentifiers":{"fee()":"ddca3f43","feeWallet()":"f25f4b56","getFee()":"ced72f87","router()":"f887ea40","token()":"fc0c546a"}}}}}