{"contracts/solidity/TestNoParams.sol":{"TestNoParams":{"abi":[{"inputs":[],"stateMutability":"nonpayable","type":"constructor"},{"inputs":[],"name":"getValue","outputs":[{"internalType":"uint256","name":"","type":"uint256"}],"stateMutability":"view","type":"function"},{"inputs":[],"name":"owner","outputs":[{"internalType":"address","name":"","type":"address"}],"stateMutability":"view","type":"function"},{"inputs":[],"name":"value","outputs":[{"internalType":"uint256","name":"","type":"uint256"}],"stateMutability":"view","type":"function"}],"evm":{"bytecode":{"linkReferences":{},"object":"6080806040523461002c57600080546001600160a01b03191633179055602a60015560d590816100328239f35b600080fdfe6080806040526004361015601257600080fd5b600090813560e01c90816320965255146081575080633fa4f24514606557638da5cb5b14603e57600080fd5b3460625780600319360112606257546040516001600160a01b039091168152602090f35b80fd5b5034606257806003193601126062576020600154604051908152f35b905034609b5781600319360112609b576020906001548152f35b5080fdfea264697066735822122027f2875b16b36ad8b37a837e6e949c9027a5dc3b452d8a4d0ca00203464570ec64736f6c63430008130033","opcodes":"PUSH1 0x80 DUP1 PUSH1 0x40 MSTORE CALLVALUE PUSH2 0x2C JUMPI PUSH1 0x0 DUP1 SLOAD PUSH1 0x1 PUSH1 0x1 PUSH1 0xA0 SHL SUB NOT AND CALLER OR SWAP1 SSTORE PUSH1 0x2A PUSH1 0x1 SSTORE PUSH1 0xD5 SWAP1 DUP2 PUSH2 0x32 DUP3 CODECOPY RETURN JUMPDEST PUSH1 0x0 DUP1 REVERT INVALID PUSH1 0x80 DUP1 PUSH1 0x40 MSTORE PUSH1 0x4 CALLDATASIZE LT ISZERO PUSH1 0x12 JUMPI PUSH1 0x0 DUP1 REVERT JUMPDEST PUSH1 0x0 SWAP1 DUP2 CALLDATALOAD PUSH1 0xE0 SHR SWAP1 DUP2 PUSH4 0x20965255 EQ PUSH1 0x81 JUMPI POP DUP1 PUSH4 0x3FA4F245 EQ PUSH1 0x65 JUMPI PUSH4 0x8DA5CB5B EQ PUSH1 0x3E JUMPI PUSH1 0x0 DUP1 REVERT JUMPDEST CALLVALUE PUSH1 0x62 JUMPI DUP1 PUSH1 0x3 NOT CALLDATASIZE ADD SLT PUSH1 0x62 JUMPI SLOAD PUSH1 0x40 MLOAD PUSH1 0x1 PUSH1 0x1 PUSH1 0xA0 SHL SUB SWAP1 SWAP2 AND DUP2 MSTORE PUSH1 0x20 SWAP1 RETURN JUMPDEST DUP1 REVERT JUMPDEST POP CALLVALUE PUSH1 0x62 JUMPI DUP1 PUSH1 0x3 NOT CALLDATASIZE ADD SLT PUSH1 0x62 JUMPI PUSH1 0x20 PUSH1 0x1 SLOAD PUSH1 0x40 MLOAD SWAP1 DUP2 MSTORE RETURN JUMPDEST SWAP1 POP CALLVALUE PUSH1 0x9B JUMPI DUP2 PUSH1 0x3 NOT CALLDATASIZE ADD SLT PUSH1 0x9B JUMPI PUSH1 0x20 SWAP1 PUSH1 0x1 SLOAD DUP2 MSTORE RETURN JUMPDEST POP DUP1 REVERT INVALID LOG2 PUSH5 0x6970667358 0x22 SLT KECCAK256 0x27 CALLCODE DUP8 JUMPDEST AND 0xB3 PUSH11 0xD8B37A837E6E949C9027A5 0xDC EXTCODESIZE GASLIMIT 0x2D DUP11 0x4D 0xC LOG0 MUL SUB CHAINID GASLIMIT PUSH17 0xEC64736F6C634300081300330000000000 "},"methodIdentifiers":{"getValue()":"20965255","owner()":"8da5cb5b","value()":"3fa4f245"}}}}}