{"contracts/solidity/adapters/SaucerSwapV1Adapter.sol":{"SaucerSwapV1Adapter":{"abi":[{"inputs":[{"internalType":"address payable","name":"_feeWallet","type":"address"},{"internalType":"contract IUniswapV2Router","name":"_router","type":"address"},{"internalType":"uint8","name":"_feePromille","type":"uint8"},{"internalType":"contract IERC20","name":"_whbarToken","type":"address"},{"internalType":"contract IWHBAR","name":"_whbarContract","type":"address"}],"stateMutability":"nonpayable","type":"constructor"},{"anonymous":false,"inputs":[{"indexed":true,"internalType":"address","name":"previousOwner","type":"address"},{"indexed":true,"internalType":"address","name":"newOwner","type":"address"}],"name":"OwnershipTransferred","type":"event"},{"stateMutability":"payable","type":"fallback"},{"inputs":[],"name":"feePromille","outputs":[{"internalType":"uint8","name":"","type":"uint8"}],"stateMutability":"view","type":"function"},{"inputs":[],"name":"feeWallet","outputs":[{"internalType":"address payable","name":"","type":"address"}],"stateMutability":"view","type":"function"},{"inputs":[],"name":"owner","outputs":[{"internalType":"address","name":"","type":"address"}],"stateMutability":"view","type":"function"},{"inputs":[],"name":"renounceOwnership","outputs":[],"stateMutability":"nonpayable","type":"function"},{"inputs":[],"name":"router","outputs":[{"internalType":"contract IUniswapV2Router","name":"","type":"address"}],"stateMutability":"view","type":"function"},{"inputs":[{"internalType":"uint8","name":"_feePromille","type":"uint8"}],"name":"setFeePromille","outputs":[],"stateMutability":"nonpayable","type":"function"},{"inputs":[{"internalType":"address payable","name":"recipient","type":"address"},{"internalType":"bytes","name":"path","type":"bytes"},{"internalType":"uint256","name":"amountFrom","type":"uint256"},{"internalType":"uint256","name":"amountTo","type":"uint256"},{"internalType":"uint256","name":"deadline","type":"uint256"},{"internalType":"bool","name":"feeOnTransfer","type":"bool"}],"name":"swap","outputs":[],"stateMutability":"payable","type":"function"},{"inputs":[{"internalType":"address","name":"newOwner","type":"address"}],"name":"transferOwnership","outputs":[],"stateMutability":"nonpayable","type":"function"},{"inputs":[],"name":"whbarContract","outputs":[{"internalType":"contract IWHBAR","name":"","type":"address"}],"stateMutability":"view","type":"function"},{"inputs":[],"name":"whbarToken","outputs":[{"internalType":"contract IERC20","name":"","type":"address"}],"stateMutability":"view","type":"function"},{"stateMutability":"payable","type":"receive"}],"evm":{"bytecode":{"linkReferences":{},"object":"60c03461015c57601f61117238819003918201601f19168301916001600160401b038311848410176101615780849260a09460405283398101031261015c5780516001600160a01b0391828216820361015c57602081015191838316830361015c57604082015160ff8116810361015c5760608301519285841680940361015c57608001519385851680950361015c576000549260405196339085167f8be0079c531659141344cd1fd0a4f28419497f9722a3daafe3b4186f6b6457e0600080a360a09081526080919091526001600160a81b03199092163360ff60a01b191617911b60ff60a01b1617600055600180546001600160a01b0319908116909217905560028054909116919091179055610ffa9081610178823960805181818160a70152818161050c015281816105ba0152818161062d015281816106ba015281816107bc015261083a015260a0518181816101be015261048b0152f35b600080fd5b634e487b7160e01b600052604160045260246000fdfe6040608081526004908136101561001d575b5050361561001b57005b005b600091823560e01c9081632f1525ad14610328578163715018a6146102cb5781638da5cb5b146102a3578163a69174421461027a578163be7dd98214610239578163dc3ef68514610216578163e5d12855146101ed578163f25f4b56146101a9578163f2fde38b146100da575063f887ea400361001157346100d657816003193601126100d657517f00000000000000000000000000000000000000000000000000000000000000006001600160a01b03168152602090f35b5080fd5b919050346101a55760203660031901126101a5576001600160a01b038235818116939192908490036101a15761010e6109a4565b831561014f57505082546001600160a01b0319811683178455167f8be0079c531659141344cd1fd0a4f28419497f9722a3daafe3b4186f6b6457e08380a380f35b906020608492519162461bcd60e51b8352820152602660248201527f4f776e61626c653a206e6577206f776e657220697320746865207a65726f206160448201526564647265737360d01b6064820152fd5b8480fd5b8280fd5b5050346100d657816003193601126100d657517f00000000000000000000000000000000000000000000000000000000000000006001600160a01b03168152602090f35b5050346100d657816003193601126100d65760015490516001600160a01b039091168152602090f35b5050346100d657816003193601126100d65760ff6020925460a01c169051908152f35b8390346100d65760203660031901126100d6573560ff811681036100d65761025f6109a4565b815460ff60a01b191660a09190911b60ff60a01b1617815580f35b5050346100d657816003193601126100d65760025490516001600160a01b039091168152602090f35b5050346100d657816003193601126100d657905490516001600160a01b039091168152602090f35b83346103255780600319360112610325576102e46109a4565b80546001600160a01b03198116825581906001600160a01b03167f8be0079c531659141344cd1fd0a4f28419497f9722a3daafe3b4186f6b6457e08280a380f35b80fd5b91905060c03660031901126101a5578135906001600160a01b0380831683036101a15760249182359067ffffffffffffffff8083116109a057366023840112156109a0578287013581811161099c578301968588019436861161099857604495863596606435986084359560a4359c8d8015150361099457899060209a8b91031261099457828101359182116109945701928060438501121561099057818401356103d281610a34565b946103df8a5196876109fc565b818652848b87019260051b82010192831161098c578401905b82821061096f575050506002835110610937578b1561092557825160001981019081116109135761042a859185610a6f565b5116975b8c156108de5784808061044087610a4c565b51169a5b169916998a8a1461089d578e86600154168b146000146108945760ff34915b5460a01c1690818102918183041490151715610881578f908b926103e86104c89204906104b17f00000000000000000000000000000000000000000000000000000000000000008387610c0e565b6001548a169485149350831561087c575034610a83565b9e15610675575050505050908a92918a898360015416808a146000146105a4575061050888519788968795869463fb3bdb4160e01b865230928601610b9b565b03927f0000000000000000000000000000000000000000000000000000000000000000165af191821561059b5750610565966105508793610557938b91610579575b50610a4c565b5190610a83565b80610568575b505050610c0e565b80f35b61057192610c0e565b38838161055d565b61059591503d808d833e61058d81836109fc565b810190610aa6565b3861054a565b513d89823e3d90fd5b938692939597948b1460001461062757610602907f000000000000000000000000000000000000000000000000000000000000000016946105e685878d610ec6565b8951632512eca560e11b81529889978896879530938701610b62565b03925af191821561059b5750610565966105508793610557938b916105795750610a4c565b610602907f0000000000000000000000000000000000000000000000000000000000000000169461065985878d610ec6565b8951634401edf760e11b81529889978896879530938701610b62565b899f9e91998f9693989b8c969b8f938f908a9d9b989d5060001461079d5750509051637ff36ab560e01b8152978896879586946106b6945030928601610b9b565b03927f0000000000000000000000000000000000000000000000000000000000000000165af1908115610793578991610779575b505b8051600019810191908211610767579061070591610a6f565b5195861061071c5750505050610565939450610c0e565b885162461bcd60e51b8152938401526023908301527f457461537761703a20494e53554646494349454e545f4f55545055545f414d4f908201526215539560ea1b6064820152608490fd5b634e487b7160e01b8a5260118652838afd5b61078d91503d808b833e61058d81836109fc565b386106ea565b8a513d8b823e3d90fd5b96859496989a9297918a96949214600014610830576107fe936107e3917f0000000000000000000000000000000000000000000000000000000000000000168099610ec6565b516318cbafe560e01b81529889978896879530938701610b62565b03925af1908115610793578991610816575b506106ec565b61082a91503d808b833e61058d81836109fc565b38610810565b6107fe93610861917f0000000000000000000000000000000000000000000000000000000000000000168099610ec6565b516338ed173960e01b81529889978896879530938701610b62565b610a83565b50634e487b7160e01b8f5260118752828ffd5b60ff8291610463565b885162461bcd60e51b8152808801839052601b818501527f457461537761703a20544f4b454e5f504149525f494e56414c4944000000000081860152606490fd5b835160001981019081116109015785806108f9819388610a6f565b51169a610444565b634e487b7160e01b8f5260118752828ffd5b50634e487b7160e01b8d52601185528cfd5b8361092f84610a4c565b51169761042e565b7408ae8c2a6eec2e07440929cac82989288bea082a89605b1b606492601587938b8b519562461bcd60e51b8752860152840152820152fd5b81358781168103610987578152908a01908a016103f8565b508f80fd5b8f80fd5b8d80fd5b8e80fd5b8980fd5b8880fd5b8780fd5b6000546001600160a01b031633036109b857565b606460405162461bcd60e51b815260206004820152602060248201527f4f776e61626c653a2063616c6c6572206973206e6f7420746865206f776e65726044820152fd5b90601f8019910116810190811067ffffffffffffffff821117610a1e57604052565b634e487b7160e01b600052604160045260246000fd5b67ffffffffffffffff8111610a1e5760051b60200190565b805115610a595760200190565b634e487b7160e01b600052603260045260246000fd5b8051821015610a595760209160051b010190565b91908203918211610a9057565b634e487b7160e01b600052601160045260246000fd5b6020908181840312610b205780519067ffffffffffffffff8211610b2057019180601f84011215610b20578251610adc81610a34565b93610aea60405195866109fc565b818552838086019260051b820101928311610b20578301905b828210610b11575050505090565b81518152908301908301610b03565b600080fd5b90815180825260208080930193019160005b828110610b45575050505090565b83516001600160a01b031685529381019392810192600101610b37565b9192608093610b8792979695978452602084015260a0604084015260a0830190610b25565b6001600160a01b0390951660608201520152565b90606092610bba91969594968352608060208401526080830190610b25565b6001600160a01b0390951660408201520152565b3d15610c09573d9067ffffffffffffffff8211610a1e5760405191610bfd601f8201601f1916602001846109fc565b82523d6000602084013e565b606090565b919080610c1a57505050565b6001546001600160a01b039384169084168103610cb45750604051602081019181831067ffffffffffffffff841117610a1e57600094859485809594819560405252165af1610c67610bce565b5015610c6f57565b60405162461bcd60e51b815260206004820152601d60248201527f457461537761703a20484241525f5452414e534645525f4641494c45440000006044820152606490fd5b60405163a9059cbb60e01b6020808301918252959094166001600160a01b03166024820152604480820193909352918252610cf06064836109fc565b604051916040830183811067ffffffffffffffff821117610a1e576040528483527f5361666545524332303a206c6f772d6c6576656c2063616c6c206661696c65648386015251610d5293600091829182855af1610d4c610bce565b91610df2565b805190828215928315610dc2575b50505015610d6b5750565b6084906040519062461bcd60e51b82526004820152602a60248201527f5361666545524332303a204552433230206f7065726174696f6e20646964206e6044820152691bdd081cdd58d8d9595960b21b6064820152fd5b610dd29350820181019101610dda565b388281610d60565b90816020910312610b2057518015158103610b205790565b91929015610e545750815115610e06575090565b3b15610e0f5790565b60405162461bcd60e51b815260206004820152601d60248201527f416464726573733a2063616c6c20746f206e6f6e2d636f6e74726163740000006044820152606490fd5b825190915015610e675750805190602001fd5b6040519062461bcd60e51b82528160208060048301528251908160248401526000935b828510610ead575050604492506000838284010152601f80199101168101030190fd5b8481018201518686016044015293810193859350610e8a565b604051636eb1769f60e11b81523060048201526001600160a01b03808416602483015260209492169291908481604481875afa8015610f88578291600091610f94575b5010610f16575b50505050565b60405163095ea7b360e01b81526001600160a01b039290921660048301526024820152908290829060449082906000905af18015610f8857610f5a575b8080610f10565b81610f7992903d10610f81575b610f7181836109fc565b810190610dda565b503880610f53565b503d610f67565b6040513d6000823e3d90fd5b91508582813d8311610fbd575b610fab81836109fc565b81010312610325575081905138610f09565b503d610fa156fea2646970667358221220c7d8f0e3866c690f3a265a2c3afed9bac0a46fe74ea1e2066dfb95ad00ad9b7a64736f6c63430008130033","opcodes":"PUSH1 0xC0 CALLVALUE PUSH2 0x15C JUMPI PUSH1 0x1F PUSH2 0x1172 CODESIZE DUP2 SWAP1 SUB SWAP2 DUP3 ADD PUSH1 0x1F NOT AND DUP4 ADD SWAP2 PUSH1 0x1 PUSH1 0x1 PUSH1 0x40 SHL SUB DUP4 GT DUP5 DUP5 LT OR PUSH2 0x161 JUMPI DUP1 DUP5 SWAP3 PUSH1 0xA0 SWAP5 PUSH1 0x40 MSTORE DUP4 CODECOPY DUP2 ADD SUB SLT PUSH2 0x15C JUMPI DUP1 MLOAD PUSH1 0x1 PUSH1 0x1 PUSH1 0xA0 SHL SUB SWAP2 DUP3 DUP3 AND DUP3 SUB PUSH2 0x15C JUMPI PUSH1 0x20 DUP2 ADD MLOAD SWAP2 DUP4 DUP4 AND DUP4 SUB PUSH2 0x15C JUMPI PUSH1 0x40 DUP3 ADD MLOAD PUSH1 0xFF DUP2 AND DUP2 SUB PUSH2 0x15C JUMPI PUSH1 0x60 DUP4 ADD MLOAD SWAP3 DUP6 DUP5 AND DUP1 SWAP5 SUB PUSH2 0x15C JUMPI PUSH1 0x80 ADD MLOAD SWAP4 DUP6 DUP6 AND DUP1 SWAP6 SUB PUSH2 0x15C JUMPI PUSH1 0x0 SLOAD SWAP3 PUSH1 0x40 MLOAD SWAP7 CALLER SWAP1 DUP6 AND PUSH32 0x8BE0079C531659141344CD1FD0A4F28419497F9722A3DAAFE3B4186F6B6457E0 PUSH1 0x0 DUP1 LOG3 PUSH1 0xA0 SWAP1 DUP2 MSTORE PUSH1 0x80 SWAP2 SWAP1 SWAP2 MSTORE PUSH1 0x1 PUSH1 0x1 PUSH1 0xA8 SHL SUB NOT SWAP1 SWAP3 AND CALLER PUSH1 0xFF PUSH1 0xA0 SHL NOT AND OR SWAP2 SHL PUSH1 0xFF PUSH1 0xA0 SHL AND OR PUSH1 0x0 SSTORE PUSH1 0x1 DUP1 SLOAD PUSH1 0x1 PUSH1 0x1 PUSH1 0xA0 SHL SUB NOT SWAP1 DUP2 AND SWAP1 SWAP3 OR SWAP1 SSTORE PUSH1 0x2 DUP1 SLOAD SWAP1 SWAP2 AND SWAP2 SWAP1 SWAP2 OR SWAP1 SSTORE PUSH2 0xFFA SWAP1 DUP2 PUSH2 0x178 DUP3 CODECOPY PUSH1 0x80 MLOAD DUP2 DUP2 DUP2 PUSH1 0xA7 ADD MSTORE DUP2 DUP2 PUSH2 0x50C ADD MSTORE DUP2 DUP2 PUSH2 0x5BA ADD MSTORE DUP2 DUP2 PUSH2 0x62D ADD MSTORE DUP2 DUP2 PUSH2 0x6BA ADD MSTORE DUP2 DUP2 PUSH2 0x7BC ADD MSTORE PUSH2 0x83A ADD MSTORE PUSH1 0xA0 MLOAD DUP2 DUP2 DUP2 PUSH2 0x1BE ADD MSTORE PUSH2 0x48B ADD MSTORE RETURN JUMPDEST PUSH1 0x0 DUP1 REVERT JUMPDEST PUSH4 0x4E487B71 PUSH1 0xE0 SHL PUSH1 0x0 MSTORE PUSH1 0x41 PUSH1 0x4 MSTORE PUSH1 0x24 PUSH1 0x0 REVERT INVALID PUSH1 0x40 PUSH1 0x80 DUP2 MSTORE PUSH1 0x4 SWAP1 DUP2 CALLDATASIZE LT ISZERO PUSH2 0x1D JUMPI JUMPDEST POP POP CALLDATASIZE ISZERO PUSH2 0x1B JUMPI STOP JUMPDEST STOP JUMPDEST PUSH1 0x0 SWAP2 DUP3 CALLDATALOAD PUSH1 0xE0 SHR SWAP1 DUP2 PUSH4 0x2F1525AD EQ PUSH2 0x328 JUMPI DUP2 PUSH4 0x715018A6 EQ PUSH2 0x2CB JUMPI DUP2 PUSH4 0x8DA5CB5B EQ PUSH2 0x2A3 JUMPI DUP2 PUSH4 0xA6917442 EQ PUSH2 0x27A JUMPI DUP2 PUSH4 0xBE7DD982 EQ PUSH2 0x239 JUMPI DUP2 PUSH4 0xDC3EF685 EQ PUSH2 0x216 JUMPI DUP2 PUSH4 0xE5D12855 EQ PUSH2 0x1ED JUMPI DUP2 PUSH4 0xF25F4B56 EQ PUSH2 0x1A9 JUMPI DUP2 PUSH4 0xF2FDE38B EQ PUSH2 0xDA JUMPI POP PUSH4 0xF887EA40 SUB PUSH2 0x11 JUMPI CALLVALUE PUSH2 0xD6 JUMPI DUP2 PUSH1 0x3 NOT CALLDATASIZE ADD SLT PUSH2 0xD6 JUMPI MLOAD PUSH32 0x0 PUSH1 0x1 PUSH1 0x1 PUSH1 0xA0 SHL SUB AND DUP2 MSTORE PUSH1 0x20 SWAP1 RETURN JUMPDEST POP DUP1 REVERT JUMPDEST SWAP2 SWAP1 POP CALLVALUE PUSH2 0x1A5 JUMPI PUSH1 0x20 CALLDATASIZE PUSH1 0x3 NOT ADD SLT PUSH2 0x1A5 JUMPI PUSH1 0x1 PUSH1 0x1 PUSH1 0xA0 SHL SUB DUP3 CALLDATALOAD DUP2 DUP2 AND SWAP4 SWAP2 SWAP3 SWAP1 DUP5 SWAP1 SUB PUSH2 0x1A1 JUMPI PUSH2 0x10E PUSH2 0x9A4 JUMP JUMPDEST DUP4 ISZERO PUSH2 0x14F JUMPI POP POP DUP3 SLOAD PUSH1 0x1 PUSH1 0x1 PUSH1 0xA0 SHL SUB NOT DUP2 AND DUP4 OR DUP5 SSTORE AND PUSH32 0x8BE0079C531659141344CD1FD0A4F28419497F9722A3DAAFE3B4186F6B6457E0 DUP4 DUP1 LOG3 DUP1 RETURN JUMPDEST SWAP1 PUSH1 0x20 PUSH1 0x84 SWAP3 MLOAD SWAP2 PUSH3 0x461BCD PUSH1 0xE5 SHL DUP4 MSTORE DUP3 ADD MSTORE PUSH1 0x26 PUSH1 0x24 DUP3 ADD MSTORE PUSH32 0x4F776E61626C653A206E6577206F776E657220697320746865207A65726F2061 PUSH1 0x44 DUP3 ADD MSTORE PUSH6 0x646472657373 PUSH1 0xD0 SHL PUSH1 0x64 DUP3 ADD MSTORE REVERT JUMPDEST DUP5 DUP1 REVERT JUMPDEST DUP3 DUP1 REVERT JUMPDEST POP POP CALLVALUE PUSH2 0xD6 JUMPI DUP2 PUSH1 0x3 NOT CALLDATASIZE ADD SLT PUSH2 0xD6 JUMPI MLOAD PUSH32 0x0 PUSH1 0x1 PUSH1 0x1 PUSH1 0xA0 SHL SUB AND DUP2 MSTORE PUSH1 0x20 SWAP1 RETURN JUMPDEST POP POP CALLVALUE PUSH2 0xD6 JUMPI DUP2 PUSH1 0x3 NOT CALLDATASIZE ADD SLT PUSH2 0xD6 JUMPI PUSH1 0x1 SLOAD SWAP1 MLOAD PUSH1 0x1 PUSH1 0x1 PUSH1 0xA0 SHL SUB SWAP1 SWAP2 AND DUP2 MSTORE PUSH1 0x20 SWAP1 RETURN JUMPDEST POP POP CALLVALUE PUSH2 0xD6 JUMPI DUP2 PUSH1 0x3 NOT CALLDATASIZE ADD SLT PUSH2 0xD6 JUMPI PUSH1 0xFF PUSH1 0x20 SWAP3 SLOAD PUSH1 0xA0 SHR AND SWAP1 MLOAD SWAP1 DUP2 MSTORE RETURN JUMPDEST DUP4 SWAP1 CALLVALUE PUSH2 0xD6 JUMPI PUSH1 0x20 CALLDATASIZE PUSH1 0x3 NOT ADD SLT PUSH2 0xD6 JUMPI CALLDATALOAD PUSH1 0xFF DUP2 AND DUP2 SUB PUSH2 0xD6 JUMPI PUSH2 0x25F PUSH2 0x9A4 JUMP JUMPDEST DUP2 SLOAD PUSH1 0xFF PUSH1 0xA0 SHL NOT AND PUSH1 0xA0 SWAP2 SWAP1 SWAP2 SHL PUSH1 0xFF PUSH1 0xA0 SHL AND OR DUP2 SSTORE DUP1 RETURN JUMPDEST POP POP CALLVALUE PUSH2 0xD6 JUMPI DUP2 PUSH1 0x3 NOT CALLDATASIZE ADD SLT PUSH2 0xD6 JUMPI PUSH1 0x2 SLOAD SWAP1 MLOAD PUSH1 0x1 PUSH1 0x1 PUSH1 0xA0 SHL SUB SWAP1 SWAP2 AND DUP2 MSTORE PUSH1 0x20 SWAP1 RETURN JUMPDEST POP POP CALLVALUE PUSH2 0xD6 JUMPI DUP2 PUSH1 0x3 NOT CALLDATASIZE ADD SLT PUSH2 0xD6 JUMPI SWAP1 SLOAD SWAP1 MLOAD PUSH1 0x1 PUSH1 0x1 PUSH1 0xA0 SHL SUB SWAP1 SWAP2 AND DUP2 MSTORE PUSH1 0x20 SWAP1 RETURN JUMPDEST DUP4 CALLVALUE PUSH2 0x325 JUMPI DUP1 PUSH1 0x3 NOT CALLDATASIZE ADD SLT PUSH2 0x325 JUMPI PUSH2 0x2E4 PUSH2 0x9A4 JUMP JUMPDEST DUP1 SLOAD PUSH1 0x1 PUSH1 0x1 PUSH1 0xA0 SHL SUB NOT DUP2 AND DUP3 SSTORE DUP2 SWAP1 PUSH1 0x1 PUSH1 0x1 PUSH1 0xA0 SHL SUB AND PUSH32 0x8BE0079C531659141344CD1FD0A4F28419497F9722A3DAAFE3B4186F6B6457E0 DUP3 DUP1 LOG3 DUP1 RETURN JUMPDEST DUP1 REVERT JUMPDEST SWAP2 SWAP1 POP PUSH1 0xC0 CALLDATASIZE PUSH1 0x3 NOT ADD SLT PUSH2 0x1A5 JUMPI DUP2 CALLDATALOAD SWAP1 PUSH1 0x1 PUSH1 0x1 PUSH1 0xA0 SHL SUB DUP1 DUP4 AND DUP4 SUB PUSH2 0x1A1 JUMPI PUSH1 0x24 SWAP2 DUP3 CALLDATALOAD SWAP1 PUSH8 0xFFFFFFFFFFFFFFFF DUP1 DUP4 GT PUSH2 0x9A0 JUMPI CALLDATASIZE PUSH1 0x23 DUP5 ADD SLT ISZERO PUSH2 0x9A0 JUMPI DUP3 DUP8 ADD CALLDATALOAD DUP2 DUP2 GT PUSH2 0x99C JUMPI DUP4 ADD SWAP7 DUP6 DUP9 ADD SWAP5 CALLDATASIZE DUP7 GT PUSH2 0x998 JUMPI PUSH1 0x44 SWAP6 DUP7 CALLDATALOAD SWAP7 PUSH1 0x64 CALLDATALOAD SWAP9 PUSH1 0x84 CALLDATALOAD SWAP6 PUSH1 0xA4 CALLDATALOAD SWAP13 DUP14 DUP1 ISZERO ISZERO SUB PUSH2 0x994 JUMPI DUP10 SWAP1 PUSH1 0x20 SWAP11 DUP12 SWAP2 SUB SLT PUSH2 0x994 JUMPI DUP3 DUP2 ADD CALLDATALOAD SWAP2 DUP3 GT PUSH2 0x994 JUMPI ADD SWAP3 DUP1 PUSH1 0x43 DUP6 ADD SLT ISZERO PUSH2 0x990 JUMPI DUP2 DUP5 ADD CALLDATALOAD PUSH2 0x3D2 DUP2 PUSH2 0xA34 JUMP JUMPDEST SWAP5 PUSH2 0x3DF DUP11 MLOAD SWAP7 DUP8 PUSH2 0x9FC JUMP JUMPDEST DUP2 DUP7 MSTORE DUP5 DUP12 DUP8 ADD SWAP3 PUSH1 0x5 SHL DUP3 ADD ADD SWAP3 DUP4 GT PUSH2 0x98C JUMPI DUP5 ADD SWAP1 JUMPDEST DUP3 DUP3 LT PUSH2 0x96F JUMPI POP POP POP PUSH1 0x2 DUP4 MLOAD LT PUSH2 0x937 JUMPI DUP12 ISZERO PUSH2 0x925 JUMPI DUP3 MLOAD PUSH1 0x0 NOT DUP2 ADD SWAP1 DUP2 GT PUSH2 0x913 JUMPI PUSH2 0x42A DUP6 SWAP2 DUP6 PUSH2 0xA6F JUMP JUMPDEST MLOAD AND SWAP8 JUMPDEST DUP13 ISZERO PUSH2 0x8DE JUMPI DUP5 DUP1 DUP1 PUSH2 0x440 DUP8 PUSH2 0xA4C JUMP JUMPDEST MLOAD AND SWAP11 JUMPDEST AND SWAP10 AND SWAP10 DUP11 DUP11 EQ PUSH2 0x89D JUMPI DUP15 DUP7 PUSH1 0x1 SLOAD AND DUP12 EQ PUSH1 0x0 EQ PUSH2 0x894 JUMPI PUSH1 0xFF CALLVALUE SWAP2 JUMPDEST SLOAD PUSH1 0xA0 SHR AND SWAP1 DUP2 DUP2 MUL SWAP2 DUP2 DUP4 DIV EQ SWAP1 ISZERO OR ISZERO PUSH2 0x881 JUMPI DUP16 SWAP1 DUP12 SWAP3 PUSH2 0x3E8 PUSH2 0x4C8 SWAP3 DIV SWAP1 PUSH2 0x4B1 PUSH32 0x0 DUP4 DUP8 PUSH2 0xC0E JUMP JUMPDEST PUSH1 0x1 SLOAD DUP11 AND SWAP5 DUP6 EQ SWAP4 POP DUP4 ISZERO PUSH2 0x87C JUMPI POP CALLVALUE PUSH2 0xA83 JUMP JUMPDEST SWAP15 ISZERO PUSH2 0x675 JUMPI POP POP POP POP POP SWAP1 DUP11 SWAP3 SWAP2 DUP11 DUP10 DUP4 PUSH1 0x1 SLOAD AND DUP1 DUP11 EQ PUSH1 0x0 EQ PUSH2 0x5A4 JUMPI POP PUSH2 0x508 DUP9 MLOAD SWAP8 DUP9 SWAP7 DUP8 SWAP6 DUP7 SWAP5 PUSH4 0xFB3BDB41 PUSH1 0xE0 SHL DUP7 MSTORE ADDRESS SWAP3 DUP7 ADD PUSH2 0xB9B JUMP JUMPDEST SUB SWAP3 PUSH32 0x0 AND GAS CALL SWAP2 DUP3 ISZERO PUSH2 0x59B JUMPI POP PUSH2 0x565 SWAP7 PUSH2 0x550 DUP8 SWAP4 PUSH2 0x557 SWAP4 DUP12 SWAP2 PUSH2 0x579 JUMPI JUMPDEST POP PUSH2 0xA4C JUMP JUMPDEST MLOAD SWAP1 PUSH2 0xA83 JUMP JUMPDEST DUP1 PUSH2 0x568 JUMPI JUMPDEST POP POP POP PUSH2 0xC0E JUMP JUMPDEST DUP1 RETURN JUMPDEST PUSH2 0x571 SWAP3 PUSH2 0xC0E JUMP JUMPDEST CODESIZE DUP4 DUP2 PUSH2 0x55D JUMP JUMPDEST PUSH2 0x595 SWAP2 POP RETURNDATASIZE DUP1 DUP14 DUP4 RETURNDATACOPY PUSH2 0x58D DUP2 DUP4 PUSH2 0x9FC JUMP JUMPDEST DUP2 ADD SWAP1 PUSH2 0xAA6 JUMP JUMPDEST CODESIZE PUSH2 0x54A JUMP JUMPDEST MLOAD RETURNDATASIZE DUP10 DUP3 RETURNDATACOPY RETURNDATASIZE SWAP1 REVERT JUMPDEST SWAP4 DUP7 SWAP3 SWAP4 SWAP6 SWAP8 SWAP5 DUP12 EQ PUSH1 0x0 EQ PUSH2 0x627 JUMPI PUSH2 0x602 SWAP1 PUSH32 0x0 AND SWAP5 PUSH2 0x5E6 DUP6 DUP8 DUP14 PUSH2 0xEC6 JUMP JUMPDEST DUP10 MLOAD PUSH4 0x2512ECA5 PUSH1 0xE1 SHL DUP2 MSTORE SWAP9 DUP10 SWAP8 DUP9 SWAP7 DUP8 SWAP6 ADDRESS SWAP4 DUP8 ADD PUSH2 0xB62 JUMP JUMPDEST SUB SWAP3 GAS CALL SWAP2 DUP3 ISZERO PUSH2 0x59B JUMPI POP PUSH2 0x565 SWAP7 PUSH2 0x550 DUP8 SWAP4 PUSH2 0x557 SWAP4 DUP12 SWAP2 PUSH2 0x579 JUMPI POP PUSH2 0xA4C JUMP JUMPDEST PUSH2 0x602 SWAP1 PUSH32 0x0 AND SWAP5 PUSH2 0x659 DUP6 DUP8 DUP14 PUSH2 0xEC6 JUMP JUMPDEST DUP10 MLOAD PUSH4 0x4401EDF7 PUSH1 0xE1 SHL DUP2 MSTORE SWAP9 DUP10 SWAP8 DUP9 SWAP7 DUP8 SWAP6 ADDRESS SWAP4 DUP8 ADD PUSH2 0xB62 JUMP JUMPDEST DUP10 SWAP16 SWAP15 SWAP2 SWAP10 DUP16 SWAP7 SWAP4 SWAP9 SWAP12 DUP13 SWAP7 SWAP12 DUP16 SWAP4 DUP16 SWAP1 DUP11 SWAP14 SWAP12 SWAP9 SWAP14 POP PUSH1 0x0 EQ PUSH2 0x79D JUMPI POP POP SWAP1 MLOAD PUSH4 0x7FF36AB5 PUSH1 0xE0 SHL DUP2 MSTORE SWAP8 DUP9 SWAP7 DUP8 SWAP6 DUP7 SWAP5 PUSH2 0x6B6 SWAP5 POP ADDRESS SWAP3 DUP7 ADD PUSH2 0xB9B JUMP JUMPDEST SUB SWAP3 PUSH32 0x0 AND GAS CALL SWAP1 DUP2 ISZERO PUSH2 0x793 JUMPI DUP10 SWAP2 PUSH2 0x779 JUMPI JUMPDEST POP JUMPDEST DUP1 MLOAD PUSH1 0x0 NOT DUP2 ADD SWAP2 SWAP1 DUP3 GT PUSH2 0x767 JUMPI SWAP1 PUSH2 0x705 SWAP2 PUSH2 0xA6F JUMP JUMPDEST MLOAD SWAP6 DUP7 LT PUSH2 0x71C JUMPI POP POP POP POP PUSH2 0x565 SWAP4 SWAP5 POP PUSH2 0xC0E JUMP JUMPDEST DUP9 MLOAD PUSH3 0x461BCD PUSH1 0xE5 SHL DUP2 MSTORE SWAP4 DUP5 ADD MSTORE PUSH1 0x23 SWAP1 DUP4 ADD MSTORE PUSH32 0x457461537761703A20494E53554646494349454E545F4F55545055545F414D4F SWAP1 DUP3 ADD MSTORE PUSH3 0x155395 PUSH1 0xEA SHL PUSH1 0x64 DUP3 ADD MSTORE PUSH1 0x84 SWAP1 REVERT JUMPDEST PUSH4 0x4E487B71 PUSH1 0xE0 SHL DUP11 MSTORE PUSH1 0x11 DUP7 MSTORE DUP4 DUP11 REVERT JUMPDEST PUSH2 0x78D SWAP2 POP RETURNDATASIZE DUP1 DUP12 DUP4 RETURNDATACOPY PUSH2 0x58D DUP2 DUP4 PUSH2 0x9FC JUMP JUMPDEST CODESIZE PUSH2 0x6EA JUMP JUMPDEST DUP11 MLOAD RETURNDATASIZE DUP12 DUP3 RETURNDATACOPY RETURNDATASIZE SWAP1 REVERT JUMPDEST SWAP7 DUP6 SWAP5 SWAP7 SWAP9 SWAP11 SWAP3 SWAP8 SWAP2 DUP11 SWAP7 SWAP5 SWAP3 EQ PUSH1 0x0 EQ PUSH2 0x830 JUMPI PUSH2 0x7FE SWAP4 PUSH2 0x7E3 SWAP2 PUSH32 0x0 AND DUP1 SWAP10 PUSH2 0xEC6 JUMP JUMPDEST MLOAD PUSH4 0x18CBAFE5 PUSH1 0xE0 SHL DUP2 MSTORE SWAP9 DUP10 SWAP8 DUP9 SWAP7 DUP8 SWAP6 ADDRESS SWAP4 DUP8 ADD PUSH2 0xB62 JUMP JUMPDEST SUB SWAP3 GAS CALL SWAP1 DUP2 ISZERO PUSH2 0x793 JUMPI DUP10 SWAP2 PUSH2 0x816 JUMPI JUMPDEST POP PUSH2 0x6EC JUMP JUMPDEST PUSH2 0x82A SWAP2 POP RETURNDATASIZE DUP1 DUP12 DUP4 RETURNDATACOPY PUSH2 0x58D DUP2 DUP4 PUSH2 0x9FC JUMP JUMPDEST CODESIZE PUSH2 0x810 JUMP JUMPDEST PUSH2 0x7FE SWAP4 PUSH2 0x861 SWAP2 PUSH32 0x0 AND DUP1 SWAP10 PUSH2 0xEC6 JUMP JUMPDEST MLOAD PUSH4 0x38ED1739 PUSH1 0xE0 SHL DUP2 MSTORE SWAP9 DUP10 SWAP8 DUP9 SWAP7 DUP8 SWAP6 ADDRESS SWAP4 DUP8 ADD PUSH2 0xB62 JUMP JUMPDEST PUSH2 0xA83 JUMP JUMPDEST POP PUSH4 0x4E487B71 PUSH1 0xE0 SHL DUP16 MSTORE PUSH1 0x11 DUP8 MSTORE DUP3 DUP16 REVERT JUMPDEST PUSH1 0xFF DUP3 SWAP2 PUSH2 0x463 JUMP JUMPDEST DUP9 MLOAD PUSH3 0x461BCD PUSH1 0xE5 SHL DUP2 MSTORE DUP1 DUP9 ADD DUP4 SWAP1 MSTORE PUSH1 0x1B DUP2 DUP6 ADD MSTORE PUSH32 0x457461537761703A20544F4B454E5F504149525F494E56414C49440000000000 DUP2 DUP7 ADD MSTORE PUSH1 0x64 SWAP1 REVERT JUMPDEST DUP4 MLOAD PUSH1 0x0 NOT DUP2 ADD SWAP1 DUP2 GT PUSH2 0x901 JUMPI DUP6 DUP1 PUSH2 0x8F9 DUP2 SWAP4 DUP9 PUSH2 0xA6F JUMP JUMPDEST MLOAD AND SWAP11 PUSH2 0x444 JUMP JUMPDEST PUSH4 0x4E487B71 PUSH1 0xE0 SHL DUP16 MSTORE PUSH1 0x11 DUP8 MSTORE DUP3 DUP16 REVERT JUMPDEST POP PUSH4 0x4E487B71 PUSH1 0xE0 SHL DUP14 MSTORE PUSH1 0x11 DUP6 MSTORE DUP13 REVERT JUMPDEST DUP4 PUSH2 0x92F DUP5 PUSH2 0xA4C JUMP JUMPDEST MLOAD AND SWAP8 PUSH2 0x42E JUMP JUMPDEST PUSH21 0x8AE8C2A6EEC2E07440929CAC82989288BEA082A89 PUSH1 0x5B SHL PUSH1 0x64 SWAP3 PUSH1 0x15 DUP8 SWAP4 DUP12 DUP12 MLOAD SWAP6 PUSH3 0x461BCD PUSH1 0xE5 SHL DUP8 MSTORE DUP7 ADD MSTORE DUP5 ADD MSTORE DUP3 ADD MSTORE REVERT JUMPDEST DUP2 CALLDATALOAD DUP8 DUP2 AND DUP2 SUB PUSH2 0x987 JUMPI DUP2 MSTORE SWAP1 DUP11 ADD SWAP1 DUP11 ADD PUSH2 0x3F8 JUMP JUMPDEST POP DUP16 DUP1 REVERT JUMPDEST DUP16 DUP1 REVERT JUMPDEST DUP14 DUP1 REVERT JUMPDEST DUP15 DUP1 REVERT JUMPDEST DUP10 DUP1 REVERT JUMPDEST DUP9 DUP1 REVERT JUMPDEST DUP8 DUP1 REVERT JUMPDEST PUSH1 0x0 SLOAD PUSH1 0x1 PUSH1 0x1 PUSH1 0xA0 SHL SUB AND CALLER SUB PUSH2 0x9B8 JUMPI JUMP JUMPDEST PUSH1 0x64 PUSH1 0x40 MLOAD PUSH3 0x461BCD PUSH1 0xE5 SHL DUP2 MSTORE PUSH1 0x20 PUSH1 0x4 DUP3 ADD MSTORE PUSH1 0x20 PUSH1 0x24 DUP3 ADD MSTORE PUSH32 0x4F776E61626C653A2063616C6C6572206973206E6F7420746865206F776E6572 PUSH1 0x44 DUP3 ADD MSTORE REVERT JUMPDEST SWAP1 PUSH1 0x1F DUP1 NOT SWAP2 ADD AND DUP2 ADD SWAP1 DUP2 LT PUSH8 0xFFFFFFFFFFFFFFFF DUP3 GT OR PUSH2 0xA1E JUMPI PUSH1 0x40 MSTORE JUMP JUMPDEST PUSH4 0x4E487B71 PUSH1 0xE0 SHL PUSH1 0x0 MSTORE PUSH1 0x41 PUSH1 0x4 MSTORE PUSH1 0x24 PUSH1 0x0 REVERT JUMPDEST PUSH8 0xFFFFFFFFFFFFFFFF DUP2 GT PUSH2 0xA1E JUMPI PUSH1 0x5 SHL PUSH1 0x20 ADD SWAP1 JUMP JUMPDEST DUP1 MLOAD ISZERO PUSH2 0xA59 JUMPI PUSH1 0x20 ADD SWAP1 JUMP JUMPDEST PUSH4 0x4E487B71 PUSH1 0xE0 SHL PUSH1 0x0 MSTORE PUSH1 0x32 PUSH1 0x4 MSTORE PUSH1 0x24 PUSH1 0x0 REVERT JUMPDEST DUP1 MLOAD DUP3 LT ISZERO PUSH2 0xA59 JUMPI PUSH1 0x20 SWAP2 PUSH1 0x5 SHL ADD ADD SWAP1 JUMP JUMPDEST SWAP2 SWAP1 DUP3 SUB SWAP2 DUP3 GT PUSH2 0xA90 JUMPI JUMP JUMPDEST PUSH4 0x4E487B71 PUSH1 0xE0 SHL PUSH1 0x0 MSTORE PUSH1 0x11 PUSH1 0x4 MSTORE PUSH1 0x24 PUSH1 0x0 REVERT JUMPDEST PUSH1 0x20 SWAP1 DUP2 DUP2 DUP5 SUB SLT PUSH2 0xB20 JUMPI DUP1 MLOAD SWAP1 PUSH8 0xFFFFFFFFFFFFFFFF DUP3 GT PUSH2 0xB20 JUMPI ADD SWAP2 DUP1 PUSH1 0x1F DUP5 ADD SLT ISZERO PUSH2 0xB20 JUMPI DUP3 MLOAD PUSH2 0xADC DUP2 PUSH2 0xA34 JUMP JUMPDEST SWAP4 PUSH2 0xAEA PUSH1 0x40 MLOAD SWAP6 DUP7 PUSH2 0x9FC JUMP JUMPDEST DUP2 DUP6 MSTORE DUP4 DUP1 DUP7 ADD SWAP3 PUSH1 0x5 SHL DUP3 ADD ADD SWAP3 DUP4 GT PUSH2 0xB20 JUMPI DUP4 ADD SWAP1 JUMPDEST DUP3 DUP3 LT PUSH2 0xB11 JUMPI POP POP POP POP SWAP1 JUMP JUMPDEST DUP2 MLOAD DUP2 MSTORE SWAP1 DUP4 ADD SWAP1 DUP4 ADD PUSH2 0xB03 JUMP JUMPDEST PUSH1 0x0 DUP1 REVERT JUMPDEST SWAP1 DUP2 MLOAD DUP1 DUP3 MSTORE PUSH1 0x20 DUP1 DUP1 SWAP4 ADD SWAP4 ADD SWAP2 PUSH1 0x0 JUMPDEST DUP3 DUP2 LT PUSH2 0xB45 JUMPI POP POP POP POP SWAP1 JUMP JUMPDEST DUP4 MLOAD PUSH1 0x1 PUSH1 0x1 PUSH1 0xA0 SHL SUB AND DUP6 MSTORE SWAP4 DUP2 ADD SWAP4 SWAP3 DUP2 ADD SWAP3 PUSH1 0x1 ADD PUSH2 0xB37 JUMP JUMPDEST SWAP2 SWAP3 PUSH1 0x80 SWAP4 PUSH2 0xB87 SWAP3 SWAP8 SWAP7 SWAP6 SWAP8 DUP5 MSTORE PUSH1 0x20 DUP5 ADD MSTORE PUSH1 0xA0 PUSH1 0x40 DUP5 ADD MSTORE PUSH1 0xA0 DUP4 ADD SWAP1 PUSH2 0xB25 JUMP JUMPDEST PUSH1 0x1 PUSH1 0x1 PUSH1 0xA0 SHL SUB SWAP1 SWAP6 AND PUSH1 0x60 DUP3 ADD MSTORE ADD MSTORE JUMP JUMPDEST SWAP1 PUSH1 0x60 SWAP3 PUSH2 0xBBA SWAP2 SWAP7 SWAP6 SWAP5 SWAP7 DUP4 MSTORE PUSH1 0x80 PUSH1 0x20 DUP5 ADD MSTORE PUSH1 0x80 DUP4 ADD SWAP1 PUSH2 0xB25 JUMP JUMPDEST PUSH1 0x1 PUSH1 0x1 PUSH1 0xA0 SHL SUB SWAP1 SWAP6 AND PUSH1 0x40 DUP3 ADD MSTORE ADD MSTORE JUMP JUMPDEST RETURNDATASIZE ISZERO PUSH2 0xC09 JUMPI RETURNDATASIZE SWAP1 PUSH8 0xFFFFFFFFFFFFFFFF DUP3 GT PUSH2 0xA1E JUMPI PUSH1 0x40 MLOAD SWAP2 PUSH2 0xBFD PUSH1 0x1F DUP3 ADD PUSH1 0x1F NOT AND PUSH1 0x20 ADD DUP5 PUSH2 0x9FC JUMP JUMPDEST DUP3 MSTORE RETURNDATASIZE PUSH1 0x0 PUSH1 0x20 DUP5 ADD RETURNDATACOPY JUMP JUMPDEST PUSH1 0x60 SWAP1 JUMP JUMPDEST SWAP2 SWAP1 DUP1 PUSH2 0xC1A JUMPI POP POP POP JUMP JUMPDEST PUSH1 0x1 SLOAD PUSH1 0x1 PUSH1 0x1 PUSH1 0xA0 SHL SUB SWAP4 DUP5 AND SWAP1 DUP5 AND DUP2 SUB PUSH2 0xCB4 JUMPI POP PUSH1 0x40 MLOAD PUSH1 0x20 DUP2 ADD SWAP2 DUP2 DUP4 LT PUSH8 0xFFFFFFFFFFFFFFFF DUP5 GT OR PUSH2 0xA1E JUMPI PUSH1 0x0 SWAP5 DUP6 SWAP5 DUP6 DUP1 SWAP6 SWAP5 DUP2 SWAP6 PUSH1 0x40 MSTORE MSTORE AND GAS CALL PUSH2 0xC67 PUSH2 0xBCE JUMP JUMPDEST POP ISZERO PUSH2 0xC6F JUMPI JUMP JUMPDEST PUSH1 0x40 MLOAD PUSH3 0x461BCD PUSH1 0xE5 SHL DUP2 MSTORE PUSH1 0x20 PUSH1 0x4 DUP3 ADD MSTORE PUSH1 0x1D PUSH1 0x24 DUP3 ADD MSTORE PUSH32 0x457461537761703A20484241525F5452414E534645525F4641494C4544000000 PUSH1 0x44 DUP3 ADD MSTORE PUSH1 0x64 SWAP1 REVERT JUMPDEST PUSH1 0x40 MLOAD PUSH4 0xA9059CBB PUSH1 0xE0 SHL PUSH1 0x20 DUP1 DUP4 ADD SWAP2 DUP3 MSTORE SWAP6 SWAP1 SWAP5 AND PUSH1 0x1 PUSH1 0x1 PUSH1 0xA0 SHL SUB AND PUSH1 0x24 DUP3 ADD MSTORE PUSH1 0x44 DUP1 DUP3 ADD SWAP4 SWAP1 SWAP4 MSTORE SWAP2 DUP3 MSTORE PUSH2 0xCF0 PUSH1 0x64 DUP4 PUSH2 0x9FC JUMP JUMPDEST PUSH1 0x40 MLOAD SWAP2 PUSH1 0x40 DUP4 ADD DUP4 DUP2 LT PUSH8 0xFFFFFFFFFFFFFFFF DUP3 GT OR PUSH2 0xA1E JUMPI PUSH1 0x40 MSTORE DUP5 DUP4 MSTORE PUSH32 0x5361666545524332303A206C6F772D6C6576656C2063616C6C206661696C6564 DUP4 DUP7 ADD MSTORE MLOAD PUSH2 0xD52 SWAP4 PUSH1 0x0 SWAP2 DUP3 SWAP2 DUP3 DUP6 GAS CALL PUSH2 0xD4C PUSH2 0xBCE JUMP JUMPDEST SWAP2 PUSH2 0xDF2 JUMP JUMPDEST DUP1 MLOAD SWAP1 DUP3 DUP3 ISZERO SWAP3 DUP4 ISZERO PUSH2 0xDC2 JUMPI JUMPDEST POP POP POP ISZERO PUSH2 0xD6B JUMPI POP JUMP JUMPDEST PUSH1 0x84 SWAP1 PUSH1 0x40 MLOAD SWAP1 PUSH3 0x461BCD PUSH1 0xE5 SHL DUP3 MSTORE PUSH1 0x4 DUP3 ADD MSTORE PUSH1 0x2A PUSH1 0x24 DUP3 ADD MSTORE PUSH32 0x5361666545524332303A204552433230206F7065726174696F6E20646964206E PUSH1 0x44 DUP3 ADD MSTORE PUSH10 0x1BDD081CDD58D8D95959 PUSH1 0xB2 SHL PUSH1 0x64 DUP3 ADD MSTORE REVERT JUMPDEST PUSH2 0xDD2 SWAP4 POP DUP3 ADD DUP2 ADD SWAP2 ADD PUSH2 0xDDA JUMP JUMPDEST CODESIZE DUP3 DUP2 PUSH2 0xD60 JUMP JUMPDEST SWAP1 DUP2 PUSH1 0x20 SWAP2 SUB SLT PUSH2 0xB20 JUMPI MLOAD DUP1 ISZERO ISZERO DUP2 SUB PUSH2 0xB20 JUMPI SWAP1 JUMP JUMPDEST SWAP2 SWAP3 SWAP1 ISZERO PUSH2 0xE54 JUMPI POP DUP2 MLOAD ISZERO PUSH2 0xE06 JUMPI POP SWAP1 JUMP JUMPDEST EXTCODESIZE ISZERO PUSH2 0xE0F JUMPI SWAP1 JUMP JUMPDEST PUSH1 0x40 MLOAD PUSH3 0x461BCD PUSH1 0xE5 SHL DUP2 MSTORE PUSH1 0x20 PUSH1 0x4 DUP3 ADD MSTORE PUSH1 0x1D PUSH1 0x24 DUP3 ADD MSTORE PUSH32 0x416464726573733A2063616C6C20746F206E6F6E2D636F6E7472616374000000 PUSH1 0x44 DUP3 ADD MSTORE PUSH1 0x64 SWAP1 REVERT JUMPDEST DUP3 MLOAD SWAP1 SWAP2 POP ISZERO PUSH2 0xE67 JUMPI POP DUP1 MLOAD SWAP1 PUSH1 0x20 ADD REVERT JUMPDEST PUSH1 0x40 MLOAD SWAP1 PUSH3 0x461BCD PUSH1 0xE5 SHL DUP3 MSTORE DUP2 PUSH1 0x20 DUP1 PUSH1 0x4 DUP4 ADD MSTORE DUP3 MLOAD SWAP1 DUP2 PUSH1 0x24 DUP5 ADD MSTORE PUSH1 0x0 SWAP4 JUMPDEST DUP3 DUP6 LT PUSH2 0xEAD JUMPI POP POP PUSH1 0x44 SWAP3 POP PUSH1 0x0 DUP4 DUP3 DUP5 ADD ADD MSTORE PUSH1 0x1F DUP1 NOT SWAP2 ADD AND DUP2 ADD SUB ADD SWAP1 REVERT JUMPDEST DUP5 DUP2 ADD DUP3 ADD MLOAD DUP7 DUP7 ADD PUSH1 0x44 ADD MSTORE SWAP4 DUP2 ADD SWAP4 DUP6 SWAP4 POP PUSH2 0xE8A JUMP JUMPDEST PUSH1 0x40 MLOAD PUSH4 0x6EB1769F PUSH1 0xE1 SHL DUP2 MSTORE ADDRESS PUSH1 0x4 DUP3 ADD MSTORE PUSH1 0x1 PUSH1 0x1 PUSH1 0xA0 SHL SUB DUP1 DUP5 AND PUSH1 0x24 DUP4 ADD MSTORE PUSH1 0x20 SWAP5 SWAP3 AND SWAP3 SWAP2 SWAP1 DUP5 DUP2 PUSH1 0x44 DUP2 DUP8 GAS STATICCALL DUP1 ISZERO PUSH2 0xF88 JUMPI DUP3 SWAP2 PUSH1 0x0 SWAP2 PUSH2 0xF94 JUMPI JUMPDEST POP LT PUSH2 0xF16 JUMPI JUMPDEST POP POP POP POP JUMP JUMPDEST PUSH1 0x40 MLOAD PUSH4 0x95EA7B3 PUSH1 0xE0 SHL DUP2 MSTORE PUSH1 0x1 PUSH1 0x1 PUSH1 0xA0 SHL SUB SWAP3 SWAP1 SWAP3 AND PUSH1 0x4 DUP4 ADD MSTORE PUSH1 0x24 DUP3 ADD MSTORE SWAP1 DUP3 SWAP1 DUP3 SWAP1 PUSH1 0x44 SWAP1 DUP3 SWAP1 PUSH1 0x0 SWAP1 GAS CALL DUP1 ISZERO PUSH2 0xF88 JUMPI PUSH2 0xF5A JUMPI JUMPDEST DUP1 DUP1 PUSH2 0xF10 JUMP JUMPDEST DUP2 PUSH2 0xF79 SWAP3 SWAP1 RETURNDATASIZE LT PUSH2 0xF81 JUMPI JUMPDEST PUSH2 0xF71 DUP2 DUP4 PUSH2 0x9FC JUMP JUMPDEST DUP2 ADD SWAP1 PUSH2 0xDDA JUMP JUMPDEST POP CODESIZE DUP1 PUSH2 0xF53 JUMP JUMPDEST POP RETURNDATASIZE PUSH2 0xF67 JUMP JUMPDEST PUSH1 0x40 MLOAD RETURNDATASIZE PUSH1 0x0 DUP3 RETURNDATACOPY RETURNDATASIZE SWAP1 REVERT JUMPDEST SWAP2 POP DUP6 DUP3 DUP2 RETURNDATASIZE DUP4 GT PUSH2 0xFBD JUMPI JUMPDEST PUSH2 0xFAB DUP2 DUP4 PUSH2 0x9FC JUMP JUMPDEST DUP2 ADD SUB SLT PUSH2 0x325 JUMPI POP DUP2 SWAP1 MLOAD CODESIZE PUSH2 0xF09 JUMP JUMPDEST POP RETURNDATASIZE PUSH2 0xFA1 JUMP INVALID LOG2 PUSH5 0x6970667358 0x22 SLT KECCAK256 0xC7 0xD8 CREATE 0xE3 DUP7 PUSH13 0x690F3A265A2C3AFED9BAC0A46F 0xE7 0x4E LOG1 0xE2 MOD PUSH14 0xFB95AD00AD9B7A64736F6C634300 ADDMOD SGT STOP CALLER "},"methodIdentifiers":{"feePromille()":"dc3ef685","feeWallet()":"f25f4b56","owner()":"8da5cb5b","renounceOwnership()":"715018a6","router()":"f887ea40","setFeePromille(uint8)":"be7dd982","swap(address,bytes,uint256,uint256,uint256,bool)":"2f1525ad","transferOwnership(address)":"f2fde38b","whbarContract()":"a6917442","whbarToken()":"e5d12855"}}}}}