{"contracts/solidity/Exchange.sol":{"Exchange":{"abi":[{"anonymous":false,"inputs":[{"indexed":true,"internalType":"string","name":"aggregatorId","type":"string"}],"name":"AdapterRemoved","type":"event"},{"anonymous":false,"inputs":[{"indexed":true,"internalType":"string","name":"aggregatorId","type":"string"},{"indexed":true,"internalType":"address","name":"addr","type":"address"}],"name":"AdapterSet","type":"event"},{"anonymous":false,"inputs":[{"indexed":true,"internalType":"address","name":"previousOwner","type":"address"},{"indexed":true,"internalType":"address","name":"newOwner","type":"address"}],"name":"OwnershipTransferred","type":"event"},{"anonymous":false,"inputs":[{"indexed":false,"internalType":"address","name":"account","type":"address"}],"name":"Paused","type":"event"},{"anonymous":false,"inputs":[{"indexed":true,"internalType":"string","name":"aggregatorId","type":"string"},{"indexed":true,"internalType":"contract IERC20","name":"tokenFrom","type":"address"},{"indexed":true,"internalType":"contract IERC20","name":"tokenTo","type":"address"},{"indexed":false,"internalType":"uint256","name":"amountFrom","type":"uint256"},{"indexed":false,"internalType":"uint256","name":"amountTo","type":"uint256"},{"indexed":false,"internalType":"address","name":"sender","type":"address"}],"name":"Swap","type":"event"},{"anonymous":false,"inputs":[{"indexed":false,"internalType":"address","name":"account","type":"address"}],"name":"Unpaused","type":"event"},{"inputs":[{"internalType":"string","name":"aggregatorId","type":"string"}],"name":"adapterFee","outputs":[{"internalType":"uint8","name":"fee","type":"uint8"}],"stateMutability":"view","type":"function"},{"inputs":[{"internalType":"string","name":"","type":"string"}],"name":"adapterRemoved","outputs":[{"internalType":"bool","name":"","type":"bool"}],"stateMutability":"view","type":"function"},{"inputs":[{"internalType":"string","name":"","type":"string"}],"name":"adapters","outputs":[{"internalType":"address","name":"","type":"address"}],"stateMutability":"view","type":"function"},{"inputs":[],"name":"owner","outputs":[{"internalType":"address","name":"","type":"address"}],"stateMutability":"view","type":"function"},{"inputs":[],"name":"pauseSwaps","outputs":[],"stateMutability":"nonpayable","type":"function"},{"inputs":[],"name":"paused","outputs":[{"internalType":"bool","name":"","type":"bool"}],"stateMutability":"view","type":"function"},{"inputs":[{"internalType":"string","name":"aggregatorId","type":"string"}],"name":"removeAdapter","outputs":[],"stateMutability":"nonpayable","type":"function"},{"inputs":[],"name":"renounceOwnership","outputs":[],"stateMutability":"nonpayable","type":"function"},{"inputs":[{"internalType":"string","name":"aggregatorId","type":"string"},{"internalType":"address","name":"addr","type":"address"}],"name":"setAdapter","outputs":[],"stateMutability":"nonpayable","type":"function"},{"inputs":[{"internalType":"string[]","name":"aggregatorIds","type":"string[]"},{"internalType":"bytes[]","name":"paths","type":"bytes[]"},{"internalType":"uint256[]","name":"amountsFrom","type":"uint256[]"},{"internalType":"uint256[]","name":"amountsTo","type":"uint256[]"},{"internalType":"uint256","name":"deadline","type":"uint256"},{"internalType":"bool","name":"isTokenFromHBAR","type":"bool"},{"internalType":"bool","name":"feeOnTransfer","type":"bool"}],"name":"splitSwap","outputs":[],"stateMutability":"payable","type":"function"},{"inputs":[{"internalType":"string","name":"aggregatorId","type":"string"},{"internalType":"bytes","name":"path","type":"bytes"},{"internalType":"uint256","name":"amountFrom","type":"uint256"},{"internalType":"uint256","name":"amountTo","type":"uint256"},{"internalType":"uint256","name":"deadline","type":"uint256"},{"internalType":"bool","name":"isTokenFromHBAR","type":"bool"},{"internalType":"bool","name":"feeOnTransfer","type":"bool"}],"name":"swap","outputs":[],"stateMutability":"payable","type":"function"},{"inputs":[{"internalType":"address","name":"newOwner","type":"address"}],"name":"transferOwnership","outputs":[],"stateMutability":"nonpayable","type":"function"},{"inputs":[],"name":"unpauseSwaps","outputs":[],"stateMutability":"nonpayable","type":"function"}],"evm":{"bytecode":{"linkReferences":{},"object":"60808060405234610062576000543360018060a01b0382167f8be0079c531659141344cd1fd0a4f28419497f9722a3daafe3b4186f6b6457e0600080a36001600160a81b0319163360ff60a01b1916176000556001805561120d90816100688239f35b600080fdfe6080604052600436101561001257600080fd5b60003560e01c806328318a17146100e757806339122461146100e25780633ef11fd7146100dd578063558b7dd1146100d85780635c975abb146100d3578063715018a6146100ce5780638da5cb5b146100c95780639804a380146100c4578063b5268389146100bf578063b84f5d1e146100ba578063bad50a47146100b5578063bd134899146100b05763f2fde38b146100ab57600080fd5b610931565b61087c565b6107b0565b61076a565b61072b565b610557565b61052e565b6104d3565b6104ad565b610448565b61038d565b610228565b610147565b9181601f8401121561011c578235916001600160401b03831161011c576020808501948460051b01011161011c57565b600080fd5b8015150361011c57565b60a4359061013882610121565b565b60c4359061013882610121565b60e036600319011261011c576001600160401b0360043581811161011c576101739036906004016100ec565b9060243583811161011c5761018c9036906004016100ec565b60449291923585811161011c576101a79036906004016100ec565b60649291923596871161011c576101c56101e39736906004016100ec565b9390926101d061012b565b966101d961013a565b9860843597610c4c565b005b9181601f8401121561011c578235916001600160401b03831161011c576020838186019501011161011c57565b602435906001600160a01b038216820361011c57565b3461011c57604036600319011261011c576004356001600160401b03811161011c576102589036906004016101e5565b90610261610212565b91823b1561031a578061029061028b6102876102806102f09587610a5f565b5460ff1690565b1590565b610a91565b6001600160a01b03926102be846102b76102aa8585610a78565b546001600160a01b031690565b1615610add565b6102eb856102cc8484610a78565b80546001600160a01b0319166001600160a01b03909216919091179055565b610b29565b9116907ff9648cbc19f288e0f271f7e95311238912bf1ea8225e636a13bb1d2591260021600080a3005b60405162461bcd60e51b815260206004820152601f60248201527f457461537761703a20414441505445525f4e4f545f415f434f4e5452414354006044820152606490fd5b602060031982011261011c57600435906001600160401b03821161011c57610389916004016101e5565b9091565b3461011c5761041661039e3661035f565b906103a76109c0565b6103d26040518383823760028185019081528190036020019020546001600160a01b03161515610b3e565b6040518282823760208184810160028152030190206bffffffffffffffffffffffff60a01b81541690556104068282610a5f565b805460ff19166001179055610b29565b7fb00061f7cc154fc23eb34671ab724fc7eb7b806abae871abae8f1eafce972135600080a2005b600091031261011c57565b3461011c576000806003193601126104aa576104626109c0565b61046a610baf565b805460ff60a01b1916600160a01b1781556040513381527f62e78cea01bee320cd4e420270b5ea74000d11b0c9f74754ebdbfc544b05a25890602090a180f35b80fd5b3461011c57600036600319011261011c57602060ff60005460a01c166040519015158152f35b3461011c576000806003193601126104aa576104ed6109c0565b80546001600160a01b03198116825581906001600160a01b03167f8be0079c531659141344cd1fd0a4f28419497f9722a3daafe3b4186f6b6457e08280a380f35b3461011c57600036600319011261011c576000546040516001600160a01b039091168152602090f35b3461011c576000806003193601126104aa576105716109c0565b805460ff8160a01c16156105b75760ff60a01b191681556040513381527f5db9ee0a495bf2e6ff9c91a7834c1ba4fdd244a5e8aa4e537bd38aeae4b073aa90602090a180f35b60405162461bcd60e51b815260206004820152601460248201527314185d5cd8589b194e881b9bdd081c185d5cd95960621b6044820152606490fd5b634e487b7160e01b600052604160045260246000fd5b6001600160401b03811161061c57604052565b6105f3565b60a081019081106001600160401b0382111761061c57604052565b604081019081106001600160401b0382111761061c57604052565b90601f801991011681019081106001600160401b0382111761061c57604052565b6001600160401b03811161061c57601f01601f191660200190565b92919261069f82610678565b916106ad6040519384610657565b82948184528183011161011c578281602093846000960137010152565b602060031982011261011c57600435906001600160401b03821161011c578060238301121561011c5781602461070593600401359101610693565b90565b60005b83811061071b5750506000910152565b818101518382015260200161070b565b3461011c57602060ff61075482610741366106ca565b8160405193828580945193849201610708565b8101600381520301902054166040519015158152f35b3461011c57602061077a366106ca565b8161078e6040519283815193849201610708565b600290820190815281900382019020546040516001600160a01b039091168152f35b3461011c576004602061080a6107fe6107fe6102aa6107ce3661035f565b906107f960405183838237600284820190815281900389019020546001600160a01b03161515610b3e565b610a78565b6001600160a01b031690565b60405163dc3ef68560e01b815292839182905afa80156108775761084591600091610849575b5060405160ff90911681529081906020820190565b0390f35b61086a915060203d8111610870575b6108628183610657565b810190610b8a565b38610830565b503d610858565b610ba3565b60e036600319011261011c576001600160401b0360043581811161011c576108a89036906004016101e5565b9060243592831161011c576108c461092b9336906004016101e5565b9260a435926108d284610121565b60c435946108df86610121565b6108e7610baf565b6108ef610bf6565b61091a6040518484823760028186019081528190036020019020546001600160a01b03161515610b3e565b608435936064359360443593610de2565b60018055005b3461011c57602036600319011261011c576004356001600160a01b03811680820361011c5761095e6109c0565b1561096c576101e390610a18565b60405162461bcd60e51b815260206004820152602660248201527f4f776e61626c653a206e6577206f776e657220697320746865207a65726f206160448201526564647265737360d01b6064820152608490fd5b6000546001600160a01b031633036109d457565b606460405162461bcd60e51b815260206004820152602060248201527f4f776e61626c653a2063616c6c6572206973206e6f7420746865206f776e65726044820152fd5b600080546001600160a01b039283166001600160a01b03198216811783559216907f8be0079c531659141344cd1fd0a4f28419497f9722a3daafe3b4186f6b6457e09080a3565b6020908260405193849283378101600381520301902090565b6020908260405193849283378101600281520301902090565b15610a9857565b60405162461bcd60e51b815260206004820152601860248201527f457461537761703a20414441505445525f52454d4f56454400000000000000006044820152606490fd5b15610ae457565b60405162461bcd60e51b815260206004820152601760248201527f457461537761703a20414441505445525f4558495354530000000000000000006044820152606490fd5b81604051928392833781016000815203902090565b15610b4557565b60405162461bcd60e51b815260206004820152601f60248201527f457461537761703a20414441505445525f444f45535f4e4f545f4558495354006044820152606490fd5b9081602091031261011c575160ff8116810361011c5790565b6040513d6000823e3d90fd5b60ff60005460a01c16610bbe57565b60405162461bcd60e51b815260206004820152601060248201526f14185d5cd8589b194e881c185d5cd95960821b6044820152606490fd5b600260015414610c07576002600155565b60405162461bcd60e51b815260206004820152601f60248201527f5265656e7472616e637947756172643a207265656e7472616e742063616c6c006044820152606490fd5b999795939194929099989698610c60610baf565b610c68610bf6565b6000998a5b60ff81168d811015610d11578b8b8f8b8b8b8f938b610ce2898f93610cdb8f9c8f9281610ce99f818382610cc6610cbd610cae85610cd399610ccb98610d3b565b6001600160a01b039291610a78565b54161515610b3e565b610d3b565b98909c610d3b565b989097610d81565b3596610d81565b3594610de2565b60ff809116908114610cfd57600101610c6d565b634e487b7160e01b8c52601160045260248cfd5b505050505050505050505050505060018055565b634e487b7160e01b600052603260045260246000fd5b9190811015610d7c5760051b81013590601e198136030182121561011c5701908135916001600160401b03831161011c57602001823603811361011c579190565b610d25565b9190811015610d7c5760051b0190565b95928060a0969360e0939a99969a6001808a1b0316895260c060208a01528160c08a0152838901376000828289010152601f8019910116860101966040860152606085015260808401521515910152565b9496979395610df46102aa8388610a78565b948015610f3357610e0e610e09368787610693565b6111c2565b995b8115610f1f57610e29610e24368888610693565b6111ad565b955b8b8a898415610f0c575b506001600160a01b03998a169360009250159050610f075750895b823b1561011c578b96610e7f8c956000976040519a8b9889978896632f1525ad60e01b88523360048901610d91565b03925af1908115610877577fd6e2df47c5d5e51f1a721ce578abf9db5ded63bd770da8e0d34a4a801a1fca0b95610ee993610ebf93610eee575b50610b29565b60408051968752602087019790975233968601969096529082169590911693929081906060820190565b0390a4565b80610efb610f0192610609565b8061043d565b38610eb9565b610e50565b610f17923390610f47565b8b8a89610e35565b610f2d610e09368888610693565b95610e2b565b610f41610e24368787610693565b99610e10565b610ffb91600080610138969560405194602097888701956323b872dd60e01b875260018060a01b03938480921660248a0152166044880152606487015260648652610f9186610621565b169260405194610fa08661063c565b8786527f5361666545524332303a206c6f772d6c6576656c2063616c6c206661696c656488870152519082855af13d15611028573d91610fdf83610678565b92610fed6040519485610657565b83523d60008785013e6110f0565b8051918215928315611010575b505050611045565b6110209350820181019101611030565b388080611008565b6060916110f0565b9081602091031261011c575161070581610121565b1561104c57565b60405162461bcd60e51b815260206004820152602a60248201527f5361666545524332303a204552433230206f7065726174696f6e20646964206e6044820152691bdd081cdd58d8d9595960b21b6064820152608490fd5b156110ab57565b60405162461bcd60e51b815260206004820152601d60248201527f416464726573733a2063616c6c20746f206e6f6e2d636f6e74726163740000006044820152606490fd5b919290156111105750815115611104575090565b610705903b15156110a4565b8251909150156111235750805190602001fd5b6044604051809262461bcd60e51b8252602060048301526111538151809281602486015260208686019101610708565b601f01601f19168101030190fd5b1561116857565b60405162461bcd60e51b815260206004820152601760248201527f496e707574206461746120697320746f6f2073686f72740000000000000000006044820152606490fd5b6014906111bd8282511015611161565b015190565b6111d0601482511015611161565b805101519056fea264697066735822122045864cf5c2b2aa952dc8b730bc6178dd89b409cd10afec52155b6223b2804e5664736f6c63430008130033","opcodes":"PUSH1 0x80 DUP1 PUSH1 0x40 MSTORE CALLVALUE PUSH2 0x62 JUMPI PUSH1 0x0 SLOAD CALLER PUSH1 0x1 DUP1 PUSH1 0xA0 SHL SUB DUP3 AND PUSH32 0x8BE0079C531659141344CD1FD0A4F28419497F9722A3DAAFE3B4186F6B6457E0 PUSH1 0x0 DUP1 LOG3 PUSH1 0x1 PUSH1 0x1 PUSH1 0xA8 SHL SUB NOT AND CALLER PUSH1 0xFF PUSH1 0xA0 SHL NOT AND OR PUSH1 0x0 SSTORE PUSH1 0x1 DUP1 SSTORE PUSH2 0x120D SWAP1 DUP2 PUSH2 0x68 DUP3 CODECOPY RETURN JUMPDEST PUSH1 0x0 DUP1 REVERT INVALID PUSH1 0x80 PUSH1 0x40 MSTORE PUSH1 0x4 CALLDATASIZE LT ISZERO PUSH2 0x12 JUMPI PUSH1 0x0 DUP1 REVERT JUMPDEST PUSH1 0x0 CALLDATALOAD PUSH1 0xE0 SHR DUP1 PUSH4 0x28318A17 EQ PUSH2 0xE7 JUMPI DUP1 PUSH4 0x39122461 EQ PUSH2 0xE2 JUMPI DUP1 PUSH4 0x3EF11FD7 EQ PUSH2 0xDD JUMPI DUP1 PUSH4 0x558B7DD1 EQ PUSH2 0xD8 JUMPI DUP1 PUSH4 0x5C975ABB EQ PUSH2 0xD3 JUMPI DUP1 PUSH4 0x715018A6 EQ PUSH2 0xCE JUMPI DUP1 PUSH4 0x8DA5CB5B EQ PUSH2 0xC9 JUMPI DUP1 PUSH4 0x9804A380 EQ PUSH2 0xC4 JUMPI DUP1 PUSH4 0xB5268389 EQ PUSH2 0xBF JUMPI DUP1 PUSH4 0xB84F5D1E EQ PUSH2 0xBA JUMPI DUP1 PUSH4 0xBAD50A47 EQ PUSH2 0xB5 JUMPI DUP1 PUSH4 0xBD134899 EQ PUSH2 0xB0 JUMPI PUSH4 0xF2FDE38B EQ PUSH2 0xAB JUMPI PUSH1 0x0 DUP1 REVERT JUMPDEST PUSH2 0x931 JUMP JUMPDEST PUSH2 0x87C JUMP JUMPDEST PUSH2 0x7B0 JUMP JUMPDEST PUSH2 0x76A JUMP JUMPDEST PUSH2 0x72B JUMP JUMPDEST PUSH2 0x557 JUMP JUMPDEST PUSH2 0x52E JUMP JUMPDEST PUSH2 0x4D3 JUMP JUMPDEST PUSH2 0x4AD JUMP JUMPDEST PUSH2 0x448 JUMP JUMPDEST PUSH2 0x38D JUMP JUMPDEST PUSH2 0x228 JUMP JUMPDEST PUSH2 0x147 JUMP JUMPDEST SWAP2 DUP2 PUSH1 0x1F DUP5 ADD SLT ISZERO PUSH2 0x11C JUMPI DUP3 CALLDATALOAD SWAP2 PUSH1 0x1 PUSH1 0x1 PUSH1 0x40 SHL SUB DUP4 GT PUSH2 0x11C JUMPI PUSH1 0x20 DUP1 DUP6 ADD SWAP5 DUP5 PUSH1 0x5 SHL ADD ADD GT PUSH2 0x11C JUMPI JUMP JUMPDEST PUSH1 0x0 DUP1 REVERT JUMPDEST DUP1 ISZERO ISZERO SUB PUSH2 0x11C JUMPI JUMP JUMPDEST PUSH1 0xA4 CALLDATALOAD SWAP1 PUSH2 0x138 DUP3 PUSH2 0x121 JUMP JUMPDEST JUMP JUMPDEST PUSH1 0xC4 CALLDATALOAD SWAP1 PUSH2 0x138 DUP3 PUSH2 0x121 JUMP JUMPDEST PUSH1 0xE0 CALLDATASIZE PUSH1 0x3 NOT ADD SLT PUSH2 0x11C JUMPI PUSH1 0x1 PUSH1 0x1 PUSH1 0x40 SHL SUB PUSH1 0x4 CALLDATALOAD DUP2 DUP2 GT PUSH2 0x11C JUMPI PUSH2 0x173 SWAP1 CALLDATASIZE SWAP1 PUSH1 0x4 ADD PUSH2 0xEC JUMP JUMPDEST SWAP1 PUSH1 0x24 CALLDATALOAD DUP4 DUP2 GT PUSH2 0x11C JUMPI PUSH2 0x18C SWAP1 CALLDATASIZE SWAP1 PUSH1 0x4 ADD PUSH2 0xEC JUMP JUMPDEST PUSH1 0x44 SWAP3 SWAP2 SWAP3 CALLDATALOAD DUP6 DUP2 GT PUSH2 0x11C JUMPI PUSH2 0x1A7 SWAP1 CALLDATASIZE SWAP1 PUSH1 0x4 ADD PUSH2 0xEC JUMP JUMPDEST PUSH1 0x64 SWAP3 SWAP2 SWAP3 CALLDATALOAD SWAP7 DUP8 GT PUSH2 0x11C JUMPI PUSH2 0x1C5 PUSH2 0x1E3 SWAP8 CALLDATASIZE SWAP1 PUSH1 0x4 ADD PUSH2 0xEC JUMP JUMPDEST SWAP4 SWAP1 SWAP3 PUSH2 0x1D0 PUSH2 0x12B JUMP JUMPDEST SWAP7 PUSH2 0x1D9 PUSH2 0x13A JUMP JUMPDEST SWAP9 PUSH1 0x84 CALLDATALOAD SWAP8 PUSH2 0xC4C JUMP JUMPDEST STOP JUMPDEST SWAP2 DUP2 PUSH1 0x1F DUP5 ADD SLT ISZERO PUSH2 0x11C JUMPI DUP3 CALLDATALOAD SWAP2 PUSH1 0x1 PUSH1 0x1 PUSH1 0x40 SHL SUB DUP4 GT PUSH2 0x11C JUMPI PUSH1 0x20 DUP4 DUP2 DUP7 ADD SWAP6 ADD ADD GT PUSH2 0x11C JUMPI JUMP JUMPDEST PUSH1 0x24 CALLDATALOAD SWAP1 PUSH1 0x1 PUSH1 0x1 PUSH1 0xA0 SHL SUB DUP3 AND DUP3 SUB PUSH2 0x11C JUMPI JUMP JUMPDEST CALLVALUE PUSH2 0x11C JUMPI PUSH1 0x40 CALLDATASIZE PUSH1 0x3 NOT ADD SLT PUSH2 0x11C JUMPI PUSH1 0x4 CALLDATALOAD PUSH1 0x1 PUSH1 0x1 PUSH1 0x40 SHL SUB DUP2 GT PUSH2 0x11C JUMPI PUSH2 0x258 SWAP1 CALLDATASIZE SWAP1 PUSH1 0x4 ADD PUSH2 0x1E5 JUMP JUMPDEST SWAP1 PUSH2 0x261 PUSH2 0x212 JUMP JUMPDEST SWAP2 DUP3 EXTCODESIZE ISZERO PUSH2 0x31A JUMPI DUP1 PUSH2 0x290 PUSH2 0x28B PUSH2 0x287 PUSH2 0x280 PUSH2 0x2F0 SWAP6 DUP8 PUSH2 0xA5F JUMP JUMPDEST SLOAD PUSH1 0xFF AND SWAP1 JUMP JUMPDEST ISZERO SWAP1 JUMP JUMPDEST PUSH2 0xA91 JUMP JUMPDEST PUSH1 0x1 PUSH1 0x1 PUSH1 0xA0 SHL SUB SWAP3 PUSH2 0x2BE DUP5 PUSH2 0x2B7 PUSH2 0x2AA DUP6 DUP6 PUSH2 0xA78 JUMP JUMPDEST SLOAD PUSH1 0x1 PUSH1 0x1 PUSH1 0xA0 SHL SUB AND SWAP1 JUMP JUMPDEST AND ISZERO PUSH2 0xADD JUMP JUMPDEST PUSH2 0x2EB DUP6 PUSH2 0x2CC DUP5 DUP5 PUSH2 0xA78 JUMP JUMPDEST DUP1 SLOAD PUSH1 0x1 PUSH1 0x1 PUSH1 0xA0 SHL SUB NOT AND PUSH1 0x1 PUSH1 0x1 PUSH1 0xA0 SHL SUB SWAP1 SWAP3 AND SWAP2 SWAP1 SWAP2 OR SWAP1 SSTORE JUMP JUMPDEST PUSH2 0xB29 JUMP JUMPDEST SWAP2 AND SWAP1 PUSH32 0xF9648CBC19F288E0F271F7E95311238912BF1EA8225E636A13BB1D2591260021 PUSH1 0x0 DUP1 LOG3 STOP JUMPDEST PUSH1 0x40 MLOAD PUSH3 0x461BCD PUSH1 0xE5 SHL DUP2 MSTORE PUSH1 0x20 PUSH1 0x4 DUP3 ADD MSTORE PUSH1 0x1F PUSH1 0x24 DUP3 ADD MSTORE PUSH32 0x457461537761703A20414441505445525F4E4F545F415F434F4E545241435400 PUSH1 0x44 DUP3 ADD MSTORE PUSH1 0x64 SWAP1 REVERT JUMPDEST PUSH1 0x20 PUSH1 0x3 NOT DUP3 ADD SLT PUSH2 0x11C JUMPI PUSH1 0x4 CALLDATALOAD SWAP1 PUSH1 0x1 PUSH1 0x1 PUSH1 0x40 SHL SUB DUP3 GT PUSH2 0x11C JUMPI PUSH2 0x389 SWAP2 PUSH1 0x4 ADD PUSH2 0x1E5 JUMP JUMPDEST SWAP1 SWAP2 JUMP JUMPDEST CALLVALUE PUSH2 0x11C JUMPI PUSH2 0x416 PUSH2 0x39E CALLDATASIZE PUSH2 0x35F JUMP JUMPDEST SWAP1 PUSH2 0x3A7 PUSH2 0x9C0 JUMP JUMPDEST PUSH2 0x3D2 PUSH1 0x40 MLOAD DUP4 DUP4 DUP3 CALLDATACOPY PUSH1 0x2 DUP2 DUP6 ADD SWAP1 DUP2 MSTORE DUP2 SWAP1 SUB PUSH1 0x20 ADD SWAP1 KECCAK256 SLOAD PUSH1 0x1 PUSH1 0x1 PUSH1 0xA0 SHL SUB AND ISZERO ISZERO PUSH2 0xB3E JUMP JUMPDEST PUSH1 0x40 MLOAD DUP3 DUP3 DUP3 CALLDATACOPY PUSH1 0x20 DUP2 DUP5 DUP2 ADD PUSH1 0x2 DUP2 MSTORE SUB ADD SWAP1 KECCAK256 PUSH12 0xFFFFFFFFFFFFFFFFFFFFFFFF PUSH1 0xA0 SHL DUP2 SLOAD AND SWAP1 SSTORE PUSH2 0x406 DUP3 DUP3 PUSH2 0xA5F JUMP JUMPDEST DUP1 SLOAD PUSH1 0xFF NOT AND PUSH1 0x1 OR SWAP1 SSTORE PUSH2 0xB29 JUMP JUMPDEST PUSH32 0xB00061F7CC154FC23EB34671AB724FC7EB7B806ABAE871ABAE8F1EAFCE972135 PUSH1 0x0 DUP1 LOG2 STOP JUMPDEST PUSH1 0x0 SWAP2 SUB SLT PUSH2 0x11C JUMPI JUMP JUMPDEST CALLVALUE PUSH2 0x11C JUMPI PUSH1 0x0 DUP1 PUSH1 0x3 NOT CALLDATASIZE ADD SLT PUSH2 0x4AA JUMPI PUSH2 0x462 PUSH2 0x9C0 JUMP JUMPDEST PUSH2 0x46A PUSH2 0xBAF JUMP JUMPDEST DUP1 SLOAD PUSH1 0xFF PUSH1 0xA0 SHL NOT AND PUSH1 0x1 PUSH1 0xA0 SHL OR DUP2 SSTORE PUSH1 0x40 MLOAD CALLER DUP2 MSTORE PUSH32 0x62E78CEA01BEE320CD4E420270B5EA74000D11B0C9F74754EBDBFC544B05A258 SWAP1 PUSH1 0x20 SWAP1 LOG1 DUP1 RETURN JUMPDEST DUP1 REVERT JUMPDEST CALLVALUE PUSH2 0x11C JUMPI PUSH1 0x0 CALLDATASIZE PUSH1 0x3 NOT ADD SLT PUSH2 0x11C JUMPI PUSH1 0x20 PUSH1 0xFF PUSH1 0x0 SLOAD PUSH1 0xA0 SHR AND PUSH1 0x40 MLOAD SWAP1 ISZERO ISZERO DUP2 MSTORE RETURN JUMPDEST CALLVALUE PUSH2 0x11C JUMPI PUSH1 0x0 DUP1 PUSH1 0x3 NOT CALLDATASIZE ADD SLT PUSH2 0x4AA JUMPI PUSH2 0x4ED PUSH2 0x9C0 JUMP JUMPDEST DUP1 SLOAD PUSH1 0x1 PUSH1 0x1 PUSH1 0xA0 SHL SUB NOT DUP2 AND DUP3 SSTORE DUP2 SWAP1 PUSH1 0x1 PUSH1 0x1 PUSH1 0xA0 SHL SUB AND PUSH32 0x8BE0079C531659141344CD1FD0A4F28419497F9722A3DAAFE3B4186F6B6457E0 DUP3 DUP1 LOG3 DUP1 RETURN JUMPDEST CALLVALUE PUSH2 0x11C JUMPI PUSH1 0x0 CALLDATASIZE PUSH1 0x3 NOT ADD SLT PUSH2 0x11C JUMPI PUSH1 0x0 SLOAD PUSH1 0x40 MLOAD PUSH1 0x1 PUSH1 0x1 PUSH1 0xA0 SHL SUB SWAP1 SWAP2 AND DUP2 MSTORE PUSH1 0x20 SWAP1 RETURN JUMPDEST CALLVALUE PUSH2 0x11C JUMPI PUSH1 0x0 DUP1 PUSH1 0x3 NOT CALLDATASIZE ADD SLT PUSH2 0x4AA JUMPI PUSH2 0x571 PUSH2 0x9C0 JUMP JUMPDEST DUP1 SLOAD PUSH1 0xFF DUP2 PUSH1 0xA0 SHR AND ISZERO PUSH2 0x5B7 JUMPI PUSH1 0xFF PUSH1 0xA0 SHL NOT AND DUP2 SSTORE PUSH1 0x40 MLOAD CALLER DUP2 MSTORE PUSH32 0x5DB9EE0A495BF2E6FF9C91A7834C1BA4FDD244A5E8AA4E537BD38AEAE4B073AA SWAP1 PUSH1 0x20 SWAP1 LOG1 DUP1 RETURN JUMPDEST PUSH1 0x40 MLOAD PUSH3 0x461BCD PUSH1 0xE5 SHL DUP2 MSTORE PUSH1 0x20 PUSH1 0x4 DUP3 ADD MSTORE PUSH1 0x14 PUSH1 0x24 DUP3 ADD MSTORE PUSH20 0x14185D5CD8589B194E881B9BDD081C185D5CD959 PUSH1 0x62 SHL PUSH1 0x44 DUP3 ADD MSTORE PUSH1 0x64 SWAP1 REVERT JUMPDEST PUSH4 0x4E487B71 PUSH1 0xE0 SHL PUSH1 0x0 MSTORE PUSH1 0x41 PUSH1 0x4 MSTORE PUSH1 0x24 PUSH1 0x0 REVERT JUMPDEST PUSH1 0x1 PUSH1 0x1 PUSH1 0x40 SHL SUB DUP2 GT PUSH2 0x61C JUMPI PUSH1 0x40 MSTORE JUMP JUMPDEST PUSH2 0x5F3 JUMP JUMPDEST PUSH1 0xA0 DUP2 ADD SWAP1 DUP2 LT PUSH1 0x1 PUSH1 0x1 PUSH1 0x40 SHL SUB DUP3 GT OR PUSH2 0x61C JUMPI PUSH1 0x40 MSTORE JUMP JUMPDEST PUSH1 0x40 DUP2 ADD SWAP1 DUP2 LT PUSH1 0x1 PUSH1 0x1 PUSH1 0x40 SHL SUB DUP3 GT OR PUSH2 0x61C JUMPI PUSH1 0x40 MSTORE JUMP JUMPDEST SWAP1 PUSH1 0x1F DUP1 NOT SWAP2 ADD AND DUP2 ADD SWAP1 DUP2 LT PUSH1 0x1 PUSH1 0x1 PUSH1 0x40 SHL SUB DUP3 GT OR PUSH2 0x61C JUMPI PUSH1 0x40 MSTORE JUMP JUMPDEST PUSH1 0x1 PUSH1 0x1 PUSH1 0x40 SHL SUB DUP2 GT PUSH2 0x61C JUMPI PUSH1 0x1F ADD PUSH1 0x1F NOT AND PUSH1 0x20 ADD SWAP1 JUMP JUMPDEST SWAP3 SWAP2 SWAP3 PUSH2 0x69F DUP3 PUSH2 0x678 JUMP JUMPDEST SWAP2 PUSH2 0x6AD PUSH1 0x40 MLOAD SWAP4 DUP5 PUSH2 0x657 JUMP JUMPDEST DUP3 SWAP5 DUP2 DUP5 MSTORE DUP2 DUP4 ADD GT PUSH2 0x11C JUMPI DUP3 DUP2 PUSH1 0x20 SWAP4 DUP5 PUSH1 0x0 SWAP7 ADD CALLDATACOPY ADD ADD MSTORE JUMP JUMPDEST PUSH1 0x20 PUSH1 0x3 NOT DUP3 ADD SLT PUSH2 0x11C JUMPI PUSH1 0x4 CALLDATALOAD SWAP1 PUSH1 0x1 PUSH1 0x1 PUSH1 0x40 SHL SUB DUP3 GT PUSH2 0x11C JUMPI DUP1 PUSH1 0x23 DUP4 ADD SLT ISZERO PUSH2 0x11C JUMPI DUP2 PUSH1 0x24 PUSH2 0x705 SWAP4 PUSH1 0x4 ADD CALLDATALOAD SWAP2 ADD PUSH2 0x693 JUMP JUMPDEST SWAP1 JUMP JUMPDEST PUSH1 0x0 JUMPDEST DUP4 DUP2 LT PUSH2 0x71B JUMPI POP POP PUSH1 0x0 SWAP2 ADD MSTORE JUMP JUMPDEST DUP2 DUP2 ADD MLOAD DUP4 DUP3 ADD MSTORE PUSH1 0x20 ADD PUSH2 0x70B JUMP JUMPDEST CALLVALUE PUSH2 0x11C JUMPI PUSH1 0x20 PUSH1 0xFF PUSH2 0x754 DUP3 PUSH2 0x741 CALLDATASIZE PUSH2 0x6CA JUMP JUMPDEST DUP2 PUSH1 0x40 MLOAD SWAP4 DUP3 DUP6 DUP1 SWAP5 MLOAD SWAP4 DUP5 SWAP3 ADD PUSH2 0x708 JUMP JUMPDEST DUP2 ADD PUSH1 0x3 DUP2 MSTORE SUB ADD SWAP1 KECCAK256 SLOAD AND PUSH1 0x40 MLOAD SWAP1 ISZERO ISZERO DUP2 MSTORE RETURN JUMPDEST CALLVALUE PUSH2 0x11C JUMPI PUSH1 0x20 PUSH2 0x77A CALLDATASIZE PUSH2 0x6CA JUMP JUMPDEST DUP2 PUSH2 0x78E PUSH1 0x40 MLOAD SWAP3 DUP4 DUP2 MLOAD SWAP4 DUP5 SWAP3 ADD PUSH2 0x708 JUMP JUMPDEST PUSH1 0x2 SWAP1 DUP3 ADD SWAP1 DUP2 MSTORE DUP2 SWAP1 SUB DUP3 ADD SWAP1 KECCAK256 SLOAD PUSH1 0x40 MLOAD PUSH1 0x1 PUSH1 0x1 PUSH1 0xA0 SHL SUB SWAP1 SWAP2 AND DUP2 MSTORE RETURN JUMPDEST CALLVALUE PUSH2 0x11C JUMPI PUSH1 0x4 PUSH1 0x20 PUSH2 0x80A PUSH2 0x7FE PUSH2 0x7FE PUSH2 0x2AA PUSH2 0x7CE CALLDATASIZE PUSH2 0x35F JUMP JUMPDEST SWAP1 PUSH2 0x7F9 PUSH1 0x40 MLOAD DUP4 DUP4 DUP3 CALLDATACOPY PUSH1 0x2 DUP5 DUP3 ADD SWAP1 DUP2 MSTORE DUP2 SWAP1 SUB DUP10 ADD SWAP1 KECCAK256 SLOAD PUSH1 0x1 PUSH1 0x1 PUSH1 0xA0 SHL SUB AND ISZERO ISZERO PUSH2 0xB3E JUMP JUMPDEST PUSH2 0xA78 JUMP JUMPDEST PUSH1 0x1 PUSH1 0x1 PUSH1 0xA0 SHL SUB AND SWAP1 JUMP JUMPDEST PUSH1 0x40 MLOAD PUSH4 0xDC3EF685 PUSH1 0xE0 SHL DUP2 MSTORE SWAP3 DUP4 SWAP2 DUP3 SWAP1 GAS STATICCALL DUP1 ISZERO PUSH2 0x877 JUMPI PUSH2 0x845 SWAP2 PUSH1 0x0 SWAP2 PUSH2 0x849 JUMPI JUMPDEST POP PUSH1 0x40 MLOAD PUSH1 0xFF SWAP1 SWAP2 AND DUP2 MSTORE SWAP1 DUP2 SWAP1 PUSH1 0x20 DUP3 ADD SWAP1 JUMP JUMPDEST SUB SWAP1 RETURN JUMPDEST PUSH2 0x86A SWAP2 POP PUSH1 0x20 RETURNDATASIZE DUP2 GT PUSH2 0x870 JUMPI JUMPDEST PUSH2 0x862 DUP2 DUP4 PUSH2 0x657 JUMP JUMPDEST DUP2 ADD SWAP1 PUSH2 0xB8A JUMP JUMPDEST CODESIZE PUSH2 0x830 JUMP JUMPDEST POP RETURNDATASIZE PUSH2 0x858 JUMP JUMPDEST PUSH2 0xBA3 JUMP JUMPDEST PUSH1 0xE0 CALLDATASIZE PUSH1 0x3 NOT ADD SLT PUSH2 0x11C JUMPI PUSH1 0x1 PUSH1 0x1 PUSH1 0x40 SHL SUB PUSH1 0x4 CALLDATALOAD DUP2 DUP2 GT PUSH2 0x11C JUMPI PUSH2 0x8A8 SWAP1 CALLDATASIZE SWAP1 PUSH1 0x4 ADD PUSH2 0x1E5 JUMP JUMPDEST SWAP1 PUSH1 0x24 CALLDATALOAD SWAP3 DUP4 GT PUSH2 0x11C JUMPI PUSH2 0x8C4 PUSH2 0x92B SWAP4 CALLDATASIZE SWAP1 PUSH1 0x4 ADD PUSH2 0x1E5 JUMP JUMPDEST SWAP3 PUSH1 0xA4 CALLDATALOAD SWAP3 PUSH2 0x8D2 DUP5 PUSH2 0x121 JUMP JUMPDEST PUSH1 0xC4 CALLDATALOAD SWAP5 PUSH2 0x8DF DUP7 PUSH2 0x121 JUMP JUMPDEST PUSH2 0x8E7 PUSH2 0xBAF JUMP JUMPDEST PUSH2 0x8EF PUSH2 0xBF6 JUMP JUMPDEST PUSH2 0x91A PUSH1 0x40 MLOAD DUP5 DUP5 DUP3 CALLDATACOPY PUSH1 0x2 DUP2 DUP7 ADD SWAP1 DUP2 MSTORE DUP2 SWAP1 SUB PUSH1 0x20 ADD SWAP1 KECCAK256 SLOAD PUSH1 0x1 PUSH1 0x1 PUSH1 0xA0 SHL SUB AND ISZERO ISZERO PUSH2 0xB3E JUMP JUMPDEST PUSH1 0x84 CALLDATALOAD SWAP4 PUSH1 0x64 CALLDATALOAD SWAP4 PUSH1 0x44 CALLDATALOAD SWAP4 PUSH2 0xDE2 JUMP JUMPDEST PUSH1 0x1 DUP1 SSTORE STOP JUMPDEST CALLVALUE PUSH2 0x11C JUMPI PUSH1 0x20 CALLDATASIZE PUSH1 0x3 NOT ADD SLT PUSH2 0x11C JUMPI PUSH1 0x4 CALLDATALOAD PUSH1 0x1 PUSH1 0x1 PUSH1 0xA0 SHL SUB DUP2 AND DUP1 DUP3 SUB PUSH2 0x11C JUMPI PUSH2 0x95E PUSH2 0x9C0 JUMP JUMPDEST ISZERO PUSH2 0x96C JUMPI PUSH2 0x1E3 SWAP1 PUSH2 0xA18 JUMP JUMPDEST PUSH1 0x40 MLOAD PUSH3 0x461BCD PUSH1 0xE5 SHL DUP2 MSTORE PUSH1 0x20 PUSH1 0x4 DUP3 ADD MSTORE PUSH1 0x26 PUSH1 0x24 DUP3 ADD MSTORE PUSH32 0x4F776E61626C653A206E6577206F776E657220697320746865207A65726F2061 PUSH1 0x44 DUP3 ADD MSTORE PUSH6 0x646472657373 PUSH1 0xD0 SHL PUSH1 0x64 DUP3 ADD MSTORE PUSH1 0x84 SWAP1 REVERT JUMPDEST PUSH1 0x0 SLOAD PUSH1 0x1 PUSH1 0x1 PUSH1 0xA0 SHL SUB AND CALLER SUB PUSH2 0x9D4 JUMPI JUMP JUMPDEST PUSH1 0x64 PUSH1 0x40 MLOAD PUSH3 0x461BCD PUSH1 0xE5 SHL DUP2 MSTORE PUSH1 0x20 PUSH1 0x4 DUP3 ADD MSTORE PUSH1 0x20 PUSH1 0x24 DUP3 ADD MSTORE PUSH32 0x4F776E61626C653A2063616C6C6572206973206E6F7420746865206F776E6572 PUSH1 0x44 DUP3 ADD MSTORE REVERT JUMPDEST PUSH1 0x0 DUP1 SLOAD PUSH1 0x1 PUSH1 0x1 PUSH1 0xA0 SHL SUB SWAP3 DUP4 AND PUSH1 0x1 PUSH1 0x1 PUSH1 0xA0 SHL SUB NOT DUP3 AND DUP2 OR DUP4 SSTORE SWAP3 AND SWAP1 PUSH32 0x8BE0079C531659141344CD1FD0A4F28419497F9722A3DAAFE3B4186F6B6457E0 SWAP1 DUP1 LOG3 JUMP JUMPDEST PUSH1 0x20 SWAP1 DUP3 PUSH1 0x40 MLOAD SWAP4 DUP5 SWAP3 DUP4 CALLDATACOPY DUP2 ADD PUSH1 0x3 DUP2 MSTORE SUB ADD SWAP1 KECCAK256 SWAP1 JUMP JUMPDEST PUSH1 0x20 SWAP1 DUP3 PUSH1 0x40 MLOAD SWAP4 DUP5 SWAP3 DUP4 CALLDATACOPY DUP2 ADD PUSH1 0x2 DUP2 MSTORE SUB ADD SWAP1 KECCAK256 SWAP1 JUMP JUMPDEST ISZERO PUSH2 0xA98 JUMPI JUMP JUMPDEST PUSH1 0x40 MLOAD PUSH3 0x461BCD PUSH1 0xE5 SHL DUP2 MSTORE PUSH1 0x20 PUSH1 0x4 DUP3 ADD MSTORE PUSH1 0x18 PUSH1 0x24 DUP3 ADD MSTORE PUSH32 0x457461537761703A20414441505445525F52454D4F5645440000000000000000 PUSH1 0x44 DUP3 ADD MSTORE PUSH1 0x64 SWAP1 REVERT JUMPDEST ISZERO PUSH2 0xAE4 JUMPI JUMP JUMPDEST PUSH1 0x40 MLOAD PUSH3 0x461BCD PUSH1 0xE5 SHL DUP2 MSTORE PUSH1 0x20 PUSH1 0x4 DUP3 ADD MSTORE PUSH1 0x17 PUSH1 0x24 DUP3 ADD MSTORE PUSH32 0x457461537761703A20414441505445525F455849535453000000000000000000 PUSH1 0x44 DUP3 ADD MSTORE PUSH1 0x64 SWAP1 REVERT JUMPDEST DUP2 PUSH1 0x40 MLOAD SWAP3 DUP4 SWAP3 DUP4 CALLDATACOPY DUP2 ADD PUSH1 0x0 DUP2 MSTORE SUB SWAP1 KECCAK256 SWAP1 JUMP JUMPDEST ISZERO PUSH2 0xB45 JUMPI JUMP JUMPDEST PUSH1 0x40 MLOAD PUSH3 0x461BCD PUSH1 0xE5 SHL DUP2 MSTORE PUSH1 0x20 PUSH1 0x4 DUP3 ADD MSTORE PUSH1 0x1F PUSH1 0x24 DUP3 ADD MSTORE PUSH32 0x457461537761703A20414441505445525F444F45535F4E4F545F455849535400 PUSH1 0x44 DUP3 ADD MSTORE PUSH1 0x64 SWAP1 REVERT JUMPDEST SWAP1 DUP2 PUSH1 0x20 SWAP2 SUB SLT PUSH2 0x11C JUMPI MLOAD PUSH1 0xFF DUP2 AND DUP2 SUB PUSH2 0x11C JUMPI SWAP1 JUMP JUMPDEST PUSH1 0x40 MLOAD RETURNDATASIZE PUSH1 0x0 DUP3 RETURNDATACOPY RETURNDATASIZE SWAP1 REVERT JUMPDEST PUSH1 0xFF PUSH1 0x0 SLOAD PUSH1 0xA0 SHR AND PUSH2 0xBBE JUMPI JUMP JUMPDEST PUSH1 0x40 MLOAD PUSH3 0x461BCD PUSH1 0xE5 SHL DUP2 MSTORE PUSH1 0x20 PUSH1 0x4 DUP3 ADD MSTORE PUSH1 0x10 PUSH1 0x24 DUP3 ADD MSTORE PUSH16 0x14185D5CD8589B194E881C185D5CD959 PUSH1 0x82 SHL PUSH1 0x44 DUP3 ADD MSTORE PUSH1 0x64 SWAP1 REVERT JUMPDEST PUSH1 0x2 PUSH1 0x1 SLOAD EQ PUSH2 0xC07 JUMPI PUSH1 0x2 PUSH1 0x1 SSTORE JUMP JUMPDEST PUSH1 0x40 MLOAD PUSH3 0x461BCD PUSH1 0xE5 SHL DUP2 MSTORE PUSH1 0x20 PUSH1 0x4 DUP3 ADD MSTORE PUSH1 0x1F PUSH1 0x24 DUP3 ADD MSTORE PUSH32 0x5265656E7472616E637947756172643A207265656E7472616E742063616C6C00 PUSH1 0x44 DUP3 ADD MSTORE PUSH1 0x64 SWAP1 REVERT JUMPDEST SWAP10 SWAP8 SWAP6 SWAP4 SWAP2 SWAP5 SWAP3 SWAP1 SWAP10 SWAP9 SWAP7 SWAP9 PUSH2 0xC60 PUSH2 0xBAF JUMP JUMPDEST PUSH2 0xC68 PUSH2 0xBF6 JUMP JUMPDEST PUSH1 0x0 SWAP10 DUP11 JUMPDEST PUSH1 0xFF DUP2 AND DUP14 DUP2 LT ISZERO PUSH2 0xD11 JUMPI DUP12 DUP12 DUP16 DUP12 DUP12 DUP12 DUP16 SWAP4 DUP12 PUSH2 0xCE2 DUP10 DUP16 SWAP4 PUSH2 0xCDB DUP16 SWAP13 DUP16 SWAP3 DUP2 PUSH2 0xCE9 SWAP16 DUP2 DUP4 DUP3 PUSH2 0xCC6 PUSH2 0xCBD PUSH2 0xCAE DUP6 PUSH2 0xCD3 SWAP10 PUSH2 0xCCB SWAP9 PUSH2 0xD3B JUMP JUMPDEST PUSH1 0x1 PUSH1 0x1 PUSH1 0xA0 SHL SUB SWAP3 SWAP2 PUSH2 0xA78 JUMP JUMPDEST SLOAD AND ISZERO ISZERO PUSH2 0xB3E JUMP JUMPDEST PUSH2 0xD3B JUMP JUMPDEST SWAP9 SWAP1 SWAP13 PUSH2 0xD3B JUMP JUMPDEST SWAP9 SWAP1 SWAP8 PUSH2 0xD81 JUMP JUMPDEST CALLDATALOAD SWAP7 PUSH2 0xD81 JUMP JUMPDEST CALLDATALOAD SWAP5 PUSH2 0xDE2 JUMP JUMPDEST PUSH1 0xFF DUP1 SWAP2 AND SWAP1 DUP2 EQ PUSH2 0xCFD JUMPI PUSH1 0x1 ADD PUSH2 0xC6D JUMP JUMPDEST PUSH4 0x4E487B71 PUSH1 0xE0 SHL DUP13 MSTORE PUSH1 0x11 PUSH1 0x4 MSTORE PUSH1 0x24 DUP13 REVERT JUMPDEST POP POP POP POP POP POP POP POP POP POP POP POP POP POP PUSH1 0x1 DUP1 SSTORE JUMP JUMPDEST PUSH4 0x4E487B71 PUSH1 0xE0 SHL PUSH1 0x0 MSTORE PUSH1 0x32 PUSH1 0x4 MSTORE PUSH1 0x24 PUSH1 0x0 REVERT JUMPDEST SWAP2 SWAP1 DUP2 LT ISZERO PUSH2 0xD7C JUMPI PUSH1 0x5 SHL DUP2 ADD CALLDATALOAD SWAP1 PUSH1 0x1E NOT DUP2 CALLDATASIZE SUB ADD DUP3 SLT ISZERO PUSH2 0x11C JUMPI ADD SWAP1 DUP2 CALLDATALOAD SWAP2 PUSH1 0x1 PUSH1 0x1 PUSH1 0x40 SHL SUB DUP4 GT PUSH2 0x11C JUMPI PUSH1 0x20 ADD DUP3 CALLDATASIZE SUB DUP2 SGT PUSH2 0x11C JUMPI SWAP2 SWAP1 JUMP JUMPDEST PUSH2 0xD25 JUMP JUMPDEST SWAP2 SWAP1 DUP2 LT ISZERO PUSH2 0xD7C JUMPI PUSH1 0x5 SHL ADD SWAP1 JUMP JUMPDEST SWAP6 SWAP3 DUP1 PUSH1 0xA0 SWAP7 SWAP4 PUSH1 0xE0 SWAP4 SWAP11 SWAP10 SWAP7 SWAP11 PUSH1 0x1 DUP1 DUP11 SHL SUB AND DUP10 MSTORE PUSH1 0xC0 PUSH1 0x20 DUP11 ADD MSTORE DUP2 PUSH1 0xC0 DUP11 ADD MSTORE DUP4 DUP10 ADD CALLDATACOPY PUSH1 0x0 DUP3 DUP3 DUP10 ADD ADD MSTORE PUSH1 0x1F DUP1 NOT SWAP2 ADD AND DUP7 ADD ADD SWAP7 PUSH1 0x40 DUP7 ADD MSTORE PUSH1 0x60 DUP6 ADD MSTORE PUSH1 0x80 DUP5 ADD MSTORE ISZERO ISZERO SWAP2 ADD MSTORE JUMP JUMPDEST SWAP5 SWAP7 SWAP8 SWAP4 SWAP6 PUSH2 0xDF4 PUSH2 0x2AA DUP4 DUP9 PUSH2 0xA78 JUMP JUMPDEST SWAP5 DUP1 ISZERO PUSH2 0xF33 JUMPI PUSH2 0xE0E PUSH2 0xE09 CALLDATASIZE DUP8 DUP8 PUSH2 0x693 JUMP JUMPDEST PUSH2 0x11C2 JUMP JUMPDEST SWAP10 JUMPDEST DUP2 ISZERO PUSH2 0xF1F JUMPI PUSH2 0xE29 PUSH2 0xE24 CALLDATASIZE DUP9 DUP9 PUSH2 0x693 JUMP JUMPDEST PUSH2 0x11AD JUMP JUMPDEST SWAP6 JUMPDEST DUP12 DUP11 DUP10 DUP5 ISZERO PUSH2 0xF0C JUMPI JUMPDEST POP PUSH1 0x1 PUSH1 0x1 PUSH1 0xA0 SHL SUB SWAP10 DUP11 AND SWAP4 PUSH1 0x0 SWAP3 POP ISZERO SWAP1 POP PUSH2 0xF07 JUMPI POP DUP10 JUMPDEST DUP3 EXTCODESIZE ISZERO PUSH2 0x11C JUMPI DUP12 SWAP7 PUSH2 0xE7F DUP13 SWAP6 PUSH1 0x0 SWAP8 PUSH1 0x40 MLOAD SWAP11 DUP12 SWAP9 DUP10 SWAP8 DUP9 SWAP7 PUSH4 0x2F1525AD PUSH1 0xE0 SHL DUP9 MSTORE CALLER PUSH1 0x4 DUP10 ADD PUSH2 0xD91 JUMP JUMPDEST SUB SWAP3 GAS CALL SWAP1 DUP2 ISZERO PUSH2 0x877 JUMPI PUSH32 0xD6E2DF47C5D5E51F1A721CE578ABF9DB5DED63BD770DA8E0D34A4A801A1FCA0B SWAP6 PUSH2 0xEE9 SWAP4 PUSH2 0xEBF SWAP4 PUSH2 0xEEE JUMPI JUMPDEST POP PUSH2 0xB29 JUMP JUMPDEST PUSH1 0x40 DUP1 MLOAD SWAP7 DUP8 MSTORE PUSH1 0x20 DUP8 ADD SWAP8 SWAP1 SWAP8 MSTORE CALLER SWAP7 DUP7 ADD SWAP7 SWAP1 SWAP7 MSTORE SWAP1 DUP3 AND SWAP6 SWAP1 SWAP2 AND SWAP4 SWAP3 SWAP1 DUP2 SWAP1 PUSH1 0x60 DUP3 ADD SWAP1 JUMP JUMPDEST SUB SWAP1 LOG4 JUMP JUMPDEST DUP1 PUSH2 0xEFB PUSH2 0xF01 SWAP3 PUSH2 0x609 JUMP JUMPDEST DUP1 PUSH2 0x43D JUMP JUMPDEST CODESIZE PUSH2 0xEB9 JUMP JUMPDEST PUSH2 0xE50 JUMP JUMPDEST PUSH2 0xF17 SWAP3 CALLER SWAP1 PUSH2 0xF47 JUMP JUMPDEST DUP12 DUP11 DUP10 PUSH2 0xE35 JUMP JUMPDEST PUSH2 0xF2D PUSH2 0xE09 CALLDATASIZE DUP9 DUP9 PUSH2 0x693 JUMP JUMPDEST SWAP6 PUSH2 0xE2B JUMP JUMPDEST PUSH2 0xF41 PUSH2 0xE24 CALLDATASIZE DUP8 DUP8 PUSH2 0x693 JUMP JUMPDEST SWAP10 PUSH2 0xE10 JUMP JUMPDEST PUSH2 0xFFB SWAP2 PUSH1 0x0 DUP1 PUSH2 0x138 SWAP7 SWAP6 PUSH1 0x40 MLOAD SWAP5 PUSH1 0x20 SWAP8 DUP9 DUP8 ADD SWAP6 PUSH4 0x23B872DD PUSH1 0xE0 SHL DUP8 MSTORE PUSH1 0x1 DUP1 PUSH1 0xA0 SHL SUB SWAP4 DUP5 DUP1 SWAP3 AND PUSH1 0x24 DUP11 ADD MSTORE AND PUSH1 0x44 DUP9 ADD MSTORE PUSH1 0x64 DUP8 ADD MSTORE PUSH1 0x64 DUP7 MSTORE PUSH2 0xF91 DUP7 PUSH2 0x621 JUMP JUMPDEST AND SWAP3 PUSH1 0x40 MLOAD SWAP5 PUSH2 0xFA0 DUP7 PUSH2 0x63C JUMP JUMPDEST DUP8 DUP7 MSTORE PUSH32 0x5361666545524332303A206C6F772D6C6576656C2063616C6C206661696C6564 DUP9 DUP8 ADD MSTORE MLOAD SWAP1 DUP3 DUP6 GAS CALL RETURNDATASIZE ISZERO PUSH2 0x1028 JUMPI RETURNDATASIZE SWAP2 PUSH2 0xFDF DUP4 PUSH2 0x678 JUMP JUMPDEST SWAP3 PUSH2 0xFED PUSH1 0x40 MLOAD SWAP5 DUP6 PUSH2 0x657 JUMP JUMPDEST DUP4 MSTORE RETURNDATASIZE PUSH1 0x0 DUP8 DUP6 ADD RETURNDATACOPY PUSH2 0x10F0 JUMP JUMPDEST DUP1 MLOAD SWAP2 DUP3 ISZERO SWAP3 DUP4 ISZERO PUSH2 0x1010 JUMPI JUMPDEST POP POP POP PUSH2 0x1045 JUMP JUMPDEST PUSH2 0x1020 SWAP4 POP DUP3 ADD DUP2 ADD SWAP2 ADD PUSH2 0x1030 JUMP JUMPDEST CODESIZE DUP1 DUP1 PUSH2 0x1008 JUMP JUMPDEST PUSH1 0x60 SWAP2 PUSH2 0x10F0 JUMP JUMPDEST SWAP1 DUP2 PUSH1 0x20 SWAP2 SUB SLT PUSH2 0x11C JUMPI MLOAD PUSH2 0x705 DUP2 PUSH2 0x121 JUMP JUMPDEST ISZERO PUSH2 0x104C JUMPI JUMP JUMPDEST PUSH1 0x40 MLOAD PUSH3 0x461BCD PUSH1 0xE5 SHL DUP2 MSTORE PUSH1 0x20 PUSH1 0x4 DUP3 ADD MSTORE PUSH1 0x2A PUSH1 0x24 DUP3 ADD MSTORE PUSH32 0x5361666545524332303A204552433230206F7065726174696F6E20646964206E PUSH1 0x44 DUP3 ADD MSTORE PUSH10 0x1BDD081CDD58D8D95959 PUSH1 0xB2 SHL PUSH1 0x64 DUP3 ADD MSTORE PUSH1 0x84 SWAP1 REVERT JUMPDEST ISZERO PUSH2 0x10AB JUMPI JUMP JUMPDEST PUSH1 0x40 MLOAD PUSH3 0x461BCD PUSH1 0xE5 SHL DUP2 MSTORE PUSH1 0x20 PUSH1 0x4 DUP3 ADD MSTORE PUSH1 0x1D PUSH1 0x24 DUP3 ADD MSTORE PUSH32 0x416464726573733A2063616C6C20746F206E6F6E2D636F6E7472616374000000 PUSH1 0x44 DUP3 ADD MSTORE PUSH1 0x64 SWAP1 REVERT JUMPDEST SWAP2 SWAP3 SWAP1 ISZERO PUSH2 0x1110 JUMPI POP DUP2 MLOAD ISZERO PUSH2 0x1104 JUMPI POP SWAP1 JUMP JUMPDEST PUSH2 0x705 SWAP1 EXTCODESIZE ISZERO ISZERO PUSH2 0x10A4 JUMP JUMPDEST DUP3 MLOAD SWAP1 SWAP2 POP ISZERO PUSH2 0x1123 JUMPI POP DUP1 MLOAD SWAP1 PUSH1 0x20 ADD REVERT JUMPDEST PUSH1 0x44 PUSH1 0x40 MLOAD DUP1 SWAP3 PUSH3 0x461BCD PUSH1 0xE5 SHL DUP3 MSTORE PUSH1 0x20 PUSH1 0x4 DUP4 ADD MSTORE PUSH2 0x1153 DUP2 MLOAD DUP1 SWAP3 DUP2 PUSH1 0x24 DUP7 ADD MSTORE PUSH1 0x20 DUP7 DUP7 ADD SWAP2 ADD PUSH2 0x708 JUMP JUMPDEST PUSH1 0x1F ADD PUSH1 0x1F NOT AND DUP2 ADD SUB ADD SWAP1 REVERT JUMPDEST ISZERO PUSH2 0x1168 JUMPI JUMP JUMPDEST PUSH1 0x40 MLOAD PUSH3 0x461BCD PUSH1 0xE5 SHL DUP2 MSTORE PUSH1 0x20 PUSH1 0x4 DUP3 ADD MSTORE PUSH1 0x17 PUSH1 0x24 DUP3 ADD MSTORE PUSH32 0x496E707574206461746120697320746F6F2073686F7274000000000000000000 PUSH1 0x44 DUP3 ADD MSTORE PUSH1 0x64 SWAP1 REVERT JUMPDEST PUSH1 0x14 SWAP1 PUSH2 0x11BD DUP3 DUP3 MLOAD LT ISZERO PUSH2 0x1161 JUMP JUMPDEST ADD MLOAD SWAP1 JUMP JUMPDEST PUSH2 0x11D0 PUSH1 0x14 DUP3 MLOAD LT ISZERO PUSH2 0x1161 JUMP JUMPDEST DUP1 MLOAD ADD MLOAD SWAP1 JUMP INVALID LOG2 PUSH5 0x6970667358 0x22 SLT KECCAK256 GASLIMIT DUP7 0x4C CREATE2 0xC2 0xB2 0xAA SWAP6 0x2D 0xC8 0xB7 ADDRESS 0xBC PUSH2 0x78DD DUP10 0xB4 MULMOD 0xCD LT 0xAF 0xEC MSTORE ISZERO JUMPDEST PUSH3 0x23B280 0x4E JUMP PUSH5 0x736F6C6343 STOP ADDMOD SGT STOP CALLER "},"methodIdentifiers":{"adapterFee(string)":"bad50a47","adapterRemoved(string)":"b5268389","adapters(string)":"b84f5d1e","owner()":"8da5cb5b","pauseSwaps()":"558b7dd1","paused()":"5c975abb","removeAdapter(string)":"3ef11fd7","renounceOwnership()":"715018a6","setAdapter(string,address)":"39122461","splitSwap(string[],bytes[],uint256[],uint256[],uint256,bool,bool)":"28318a17","swap(string,bytes,uint256,uint256,uint256,bool,bool)":"bd134899","transferOwnership(address)":"f2fde38b","unpauseSwaps()":"9804a380"}}}}}