{
  "_format": "hh-sol-artifact-1",
  "contractName": "TestNoParams",
  "sourceName": "contracts/solidity/TestNoParams.sol",
  "abi": [
    {
      "inputs": [],
      "stateMutability": "nonpayable",
      "type": "constructor"
    },
    {
      "inputs": [],
      "name": "getValue",
      "outputs": [
        {
          "internalType": "uint256",
          "name": "",
          "type": "uint256"
        }
      ],
      "stateMutability": "view",
      "type": "function"
    },
    {
      "inputs": [],
      "name": "owner",
      "outputs": [
        {
          "internalType": "address",
          "name": "",
          "type": "address"
        }
      ],
      "stateMutability": "view",
      "type": "function"
    },
    {
      "inputs": [],
      "name": "value",
      "outputs": [
        {
          "internalType": "uint256",
          "name": "",
          "type": "uint256"
        }
      ],
      "stateMutability": "view",
      "type": "function"
    }
  ],
  "bytecode": "0x6080806040523461002c57600080546001600160a01b03191633179055602a60015560d590816100328239f35b600080fdfe6080806040526004361015601257600080fd5b600090813560e01c90816320965255146081575080633fa4f24514606557638da5cb5b14603e57600080fd5b3460625780600319360112606257546040516001600160a01b039091168152602090f35b80fd5b5034606257806003193601126062576020600154604051908152f35b905034609b5781600319360112609b576020906001548152f35b5080fdfea264697066735822122027f2875b16b36ad8b37a837e6e949c9027a5dc3b452d8a4d0ca00203464570ec64736f6c63430008130033",
  "linkReferences": {},
  "deployedLinkReferences": {}
}