{
  "_format": "hh-sol-artifact-1",
  "contractName": "TestSimple",
  "sourceName": "contracts/solidity/TestSimple.sol",
  "abi": [
    {
      "inputs": [
        {
          "internalType": "address payable",
          "name": "_feeWallet",
          "type": "address"
        },
        {
          "internalType": "address",
          "name": "_router",
          "type": "address"
        },
        {
          "internalType": "uint16",
          "name": "_fee",
          "type": "uint16"
        },
        {
          "internalType": "address",
          "name": "_token",
          "type": "address"
        }
      ],
      "stateMutability": "nonpayable",
      "type": "constructor"
    },
    {
      "inputs": [],
      "name": "fee",
      "outputs": [
        {
          "internalType": "uint16",
          "name": "",
          "type": "uint16"
        }
      ],
      "stateMutability": "view",
      "type": "function"
    },
    {
      "inputs": [],
      "name": "feeWallet",
      "outputs": [
        {
          "internalType": "address",
          "name": "",
          "type": "address"
        }
      ],
      "stateMutability": "view",
      "type": "function"
    },
    {
      "inputs": [],
      "name": "getFee",
      "outputs": [
        {
          "internalType": "uint16",
          "name": "",
          "type": "uint16"
        }
      ],
      "stateMutability": "view",
      "type": "function"
    },
    {
      "inputs": [],
      "name": "router",
      "outputs": [
        {
          "internalType": "address",
          "name": "",
          "type": "address"
        }
      ],
      "stateMutability": "view",
      "type": "function"
    },
    {
      "inputs": [],
      "name": "token",
      "outputs": [
        {
          "internalType": "address",
          "name": "",
          "type": "address"
        }
      ],
      "stateMutability": "view",
      "type": "function"
    }
  ],
  "bytecode": "0x6080346100cb57601f61025038819003918201601f19168301916001600160401b038311848410176100d0578084926080946040528339810103126100cb5780516001600160a01b038082169290918390036100cb57610061602082016100e6565b60408201519161ffff831683036100cb57606061007e91016100e6565b9160018060a01b031994856000541617600055836001549161ffff60a01b9060a01b1692169060018060b01b03191617176001551690600254161760025560405161015590816100fb8239f35b600080fd5b634e487b7160e01b600052604160045260246000fd5b51906001600160a01b03821682036100cb5756fe608080604052600436101561001357600080fd5b600090813560e01c908163ced72f87146100f857508063ddca3f43146100d3578063f25f4b56146100ac578063f887ea40146100835763fc0c546a1461005857600080fd5b346100805780600319360112610080576002546040516001600160a01b039091168152602090f35b80fd5b50346100805780600319360112610080576001546040516001600160a01b039091168152602090f35b5034610080578060031936011261008057546040516001600160a01b039091168152602090f35b5034610080578060031936011261008057602061ffff60015460a01c16604051908152f35b90503461011b578160031936011261011b5760209061ffff60015460a01c168152f35b5080fdfea2646970667358221220b5871fcb6cb2066bd0868377fc79e44afab8e8e3b7c05ea701913239a575212964736f6c63430008130033",
  "linkReferences": {},
  "deployedLinkReferences": {}
}