{
  "_format": "hh-sol-artifact-1",
  "contractName": "Exchange",
  "sourceName": "contracts/solidity/Exchange.sol",
  "abi": [
    {
      "anonymous": false,
      "inputs": [
        {
          "indexed": true,
          "internalType": "string",
          "name": "aggregatorId",
          "type": "string"
        }
      ],
      "name": "AdapterRemoved",
      "type": "event"
    },
    {
      "anonymous": false,
      "inputs": [
        {
          "indexed": true,
          "internalType": "string",
          "name": "aggregatorId",
          "type": "string"
        },
        {
          "indexed": true,
          "internalType": "address",
          "name": "addr",
          "type": "address"
        }
      ],
      "name": "AdapterSet",
      "type": "event"
    },
    {
      "anonymous": false,
      "inputs": [
        {
          "indexed": true,
          "internalType": "address",
          "name": "previousOwner",
          "type": "address"
        },
        {
          "indexed": true,
          "internalType": "address",
          "name": "newOwner",
          "type": "address"
        }
      ],
      "name": "OwnershipTransferred",
      "type": "event"
    },
    {
      "anonymous": false,
      "inputs": [
        {
          "indexed": false,
          "internalType": "address",
          "name": "account",
          "type": "address"
        }
      ],
      "name": "Paused",
      "type": "event"
    },
    {
      "anonymous": false,
      "inputs": [
        {
          "indexed": true,
          "internalType": "string",
          "name": "aggregatorId",
          "type": "string"
        },
        {
          "indexed": true,
          "internalType": "contract IERC20",
          "name": "tokenFrom",
          "type": "address"
        },
        {
          "indexed": true,
          "internalType": "contract IERC20",
          "name": "tokenTo",
          "type": "address"
        },
        {
          "indexed": false,
          "internalType": "uint256",
          "name": "amountFrom",
          "type": "uint256"
        },
        {
          "indexed": false,
          "internalType": "uint256",
          "name": "amountTo",
          "type": "uint256"
        },
        {
          "indexed": false,
          "internalType": "address",
          "name": "sender",
          "type": "address"
        }
      ],
      "name": "Swap",
      "type": "event"
    },
    {
      "anonymous": false,
      "inputs": [
        {
          "indexed": false,
          "internalType": "address",
          "name": "account",
          "type": "address"
        }
      ],
      "name": "Unpaused",
      "type": "event"
    },
    {
      "inputs": [
        {
          "internalType": "string",
          "name": "aggregatorId",
          "type": "string"
        }
      ],
      "name": "adapterFee",
      "outputs": [
        {
          "internalType": "uint8",
          "name": "fee",
          "type": "uint8"
        }
      ],
      "stateMutability": "view",
      "type": "function"
    },
    {
      "inputs": [
        {
          "internalType": "string",
          "name": "",
          "type": "string"
        }
      ],
      "name": "adapterRemoved",
      "outputs": [
        {
          "internalType": "bool",
          "name": "",
          "type": "bool"
        }
      ],
      "stateMutability": "view",
      "type": "function"
    },
    {
      "inputs": [
        {
          "internalType": "string",
          "name": "",
          "type": "string"
        }
      ],
      "name": "adapters",
      "outputs": [
        {
          "internalType": "address",
          "name": "",
          "type": "address"
        }
      ],
      "stateMutability": "view",
      "type": "function"
    },
    {
      "inputs": [],
      "name": "owner",
      "outputs": [
        {
          "internalType": "address",
          "name": "",
          "type": "address"
        }
      ],
      "stateMutability": "view",
      "type": "function"
    },
    {
      "inputs": [],
      "name": "pauseSwaps",
      "outputs": [],
      "stateMutability": "nonpayable",
      "type": "function"
    },
    {
      "inputs": [],
      "name": "paused",
      "outputs": [
        {
          "internalType": "bool",
          "name": "",
          "type": "bool"
        }
      ],
      "stateMutability": "view",
      "type": "function"
    },
    {
      "inputs": [
        {
          "internalType": "string",
          "name": "aggregatorId",
          "type": "string"
        }
      ],
      "name": "removeAdapter",
      "outputs": [],
      "stateMutability": "nonpayable",
      "type": "function"
    },
    {
      "inputs": [],
      "name": "renounceOwnership",
      "outputs": [],
      "stateMutability": "nonpayable",
      "type": "function"
    },
    {
      "inputs": [
        {
          "internalType": "string",
          "name": "aggregatorId",
          "type": "string"
        },
        {
          "internalType": "address",
          "name": "addr",
          "type": "address"
        }
      ],
      "name": "setAdapter",
      "outputs": [],
      "stateMutability": "nonpayable",
      "type": "function"
    },
    {
      "inputs": [
        {
          "internalType": "string[]",
          "name": "aggregatorIds",
          "type": "string[]"
        },
        {
          "internalType": "bytes[]",
          "name": "paths",
          "type": "bytes[]"
        },
        {
          "internalType": "uint256[]",
          "name": "amountsFrom",
          "type": "uint256[]"
        },
        {
          "internalType": "uint256[]",
          "name": "amountsTo",
          "type": "uint256[]"
        },
        {
          "internalType": "uint256",
          "name": "deadline",
          "type": "uint256"
        },
        {
          "internalType": "bool",
          "name": "isTokenFromHBAR",
          "type": "bool"
        },
        {
          "internalType": "bool",
          "name": "feeOnTransfer",
          "type": "bool"
        }
      ],
      "name": "splitSwap",
      "outputs": [],
      "stateMutability": "payable",
      "type": "function"
    },
    {
      "inputs": [
        {
          "internalType": "string",
          "name": "aggregatorId",
          "type": "string"
        },
        {
          "internalType": "bytes",
          "name": "path",
          "type": "bytes"
        },
        {
          "internalType": "uint256",
          "name": "amountFrom",
          "type": "uint256"
        },
        {
          "internalType": "uint256",
          "name": "amountTo",
          "type": "uint256"
        },
        {
          "internalType": "uint256",
          "name": "deadline",
          "type": "uint256"
        },
        {
          "internalType": "bool",
          "name": "isTokenFromHBAR",
          "type": "bool"
        },
        {
          "internalType": "bool",
          "name": "feeOnTransfer",
          "type": "bool"
        }
      ],
      "name": "swap",
      "outputs": [],
      "stateMutability": "payable",
      "type": "function"
    },
    {
      "inputs": [
        {
          "internalType": "address",
          "name": "newOwner",
          "type": "address"
        }
      ],
      "name": "transferOwnership",
      "outputs": [],
      "stateMutability": "nonpayable",
      "type": "function"
    },
    {
      "inputs": [],
      "name": "unpauseSwaps",
      "outputs": [],
      "stateMutability": "nonpayable",
      "type": "function"
    }
  ],
  "bytecode": "0x608060405234801561001057600080fd5b5061001a33610030565b6000805460ff60a01b1916905560018055610080565b600080546001600160a01b038381166001600160a01b0319831681178455604051919092169283917f8be0079c531659141344cd1fd0a4f28419497f9722a3daafe3b4186f6b6457e09190a35050565b6116d28061008f6000396000f3fe6080604052600436106100c25760003560e01c80638da5cb5b1161007f578063b84f5d1e11610059578063b84f5d1e146101f8578063bad50a4714610239578063bd1348991461026b578063f2fde38b1461027e57600080fd5b80638da5cb5b146101765780639804a380146101a8578063b5268389146101bd57600080fd5b806328318a17146100c757806339122461146100dc5780633ef11fd7146100fc578063558b7dd11461011c5780635c975abb14610131578063715018a614610161575b600080fd5b6100da6100d5366004611144565b61029e565b005b3480156100e857600080fd5b506100da6100f736600461128d565b6103ee565b34801561010857600080fd5b506100da6101173660046112e1565b6105c1565b34801561012857600080fd5b506100da6106c0565b34801561013d57600080fd5b50600054600160a01b900460ff165b60405190151581526020015b60405180910390f35b34801561016d57600080fd5b506100da6106d2565b34801561018257600080fd5b506000546001600160a01b03165b6040516001600160a01b039091168152602001610158565b3480156101b457600080fd5b506100da6106e4565b3480156101c957600080fd5b5061014c6101d8366004611339565b805160208183018101805160038252928201919093012091525460ff1681565b34801561020457600080fd5b50610190610213366004611339565b80516020818301810180516002825292820191909301209152546001600160a01b031681565b34801561024557600080fd5b506102596102543660046112e1565b6106f4565b60405160ff9091168152602001610158565b6100da6102793660046113ea565b6107d4565b34801561028a57600080fd5b506100da61029936600461149c565b61085c565b6102a66108d5565b6102ae610922565b60005b60ff81168b11156103d757600060028d8d60ff85168181106102d5576102d56114b7565b90506020028101906102e791906114cd565b6040516102f5929190611514565b908152604051908190036020019020546001600160a01b0316036103345760405162461bcd60e51b815260040161032b90611524565b60405180910390fd5b6103c58c8c8360ff1681811061034c5761034c6114b7565b905060200281019061035e91906114cd565b8c8c8560ff16818110610373576103736114b7565b905060200281019061038591906114cd565b8c8c8760ff1681811061039a5761039a6114b7565b905060200201358b8b8860ff168181106103b6576103b66114b7565b905060200201358a8a8a61097b565b806103cf8161155b565b9150506102b1565b506103e160018055565b5050505050505050505050565b6000816001600160a01b03163b116104485760405162461bcd60e51b815260206004820152601f60248201527f457461537761703a20414441505445525f4e4f545f415f434f4e545241435400604482015260640161032b565b6003838360405161045a929190611514565b9081526040519081900360200190205460ff16156104ba5760405162461bcd60e51b815260206004820152601860248201527f457461537761703a20414441505445525f52454d4f5645440000000000000000604482015260640161032b565b60006001600160a01b0316600284846040516104d7929190611514565b908152604051908190036020019020546001600160a01b03161461053d5760405162461bcd60e51b815260206004820152601760248201527f457461537761703a20414441505445525f455849535453000000000000000000604482015260640161032b565b8060028484604051610550929190611514565b90815260405190819003602001812080546001600160a01b039384166001600160a01b03199091161790559082169061058c9085908590611514565b604051908190038120907ff9648cbc19f288e0f271f7e95311238912bf1ea8225e636a13bb1d259126002190600090a3505050565b6105c9610bce565b60006001600160a01b0316600283836040516105e6929190611514565b908152604051908190036020019020546001600160a01b03160361061c5760405162461bcd60e51b815260040161032b90611524565b6002828260405161062e929190611514565b90815260405190819003602001812080546001600160a01b031916905560019060039061065e9085908590611514565b908152604051908190036020018120805492151560ff199093169290921790915561068c9083908390611514565b604051908190038120907fb00061f7cc154fc23eb34671ab724fc7eb7b806abae871abae8f1eafce97213590600090a25050565b6106c8610bce565b6106d0610c28565b565b6106da610bce565b6106d06000610c88565b6106ec610bce565b6106d0610cd8565b6000806001600160a01b031660028484604051610712929190611514565b908152604051908190036020019020546001600160a01b0316036107485760405162461bcd60e51b815260040161032b90611524565b6002838360405161075a929190611514565b90815260408051602092819003830181205463dc3ef68560e01b825291516001600160a01b039092169263dc3ef685926004808401938290030181865afa1580156107a9573d6000803e3d6000fd5b505050506040513d601f19601f820116820180604052508101906107cd9190611588565b9392505050565b6107dc6108d5565b6107e4610922565b60006001600160a01b031660028a8a604051610801929190611514565b908152604051908190036020019020546001600160a01b0316036108375760405162461bcd60e51b815260040161032b90611524565b61084889898989898989898961097b565b61085160018055565b505050505050505050565b610864610bce565b6001600160a01b0381166108c95760405162461bcd60e51b815260206004820152602660248201527f4f776e61626c653a206e6577206f776e657220697320746865207a65726f206160448201526564647265737360d01b606482015260840161032b565b6108d281610c88565b50565b600054600160a01b900460ff16156106d05760405162461bcd60e51b815260206004820152601060248201526f14185d5cd8589b194e881c185d5cd95960821b604482015260640161032b565b6002600154036109745760405162461bcd60e51b815260206004820152601f60248201527f5265656e7472616e637947756172643a207265656e7472616e742063616c6c00604482015260640161032b565b6002600155565b600060028a8a60405161098f929190611514565b908152604051908190036020019020546001600160a01b031690506000826109f5576109f089898080601f016020809104026020016040519081016040528093929190818152602001838380828437600092019190915250610d1492505050565b610a34565b610a3489898080601f016020809104026020016040519081016040528093929190818152602001838380828437600092019190915250610d6a92505050565b9050600083610a8157610a7c8a8a8080601f016020809104026020016040519081016040528093929190818152602001838380828437600092019190915250610d6a92505050565b610ac0565b610ac08a8a8080601f016020809104026020016040519081016040528093929190818152602001838380828437600092019190915250610d1492505050565b905084610adc57610adc6001600160a01b03831633858b610dc0565b826001600160a01b0316632f1525ad86610af7576000610af9565b895b338d8d8d8d8d8c6040518963ffffffff1660e01b8152600401610b2297969594939291906115ab565b6000604051808303818588803b158015610b3b57600080fd5b505af1158015610b4f573d6000803e3d6000fd5b5050505050806001600160a01b0316826001600160a01b03168d8d604051610b78929190611514565b604080519182900382208c8352602083018c90523383830152905190917fd6e2df47c5d5e51f1a721ce578abf9db5ded63bd770da8e0d34a4a801a1fca0b919081900360600190a4505050505050505050505050565b6000546001600160a01b031633146106d05760405162461bcd60e51b815260206004820181905260248201527f4f776e61626c653a2063616c6c6572206973206e6f7420746865206f776e6572604482015260640161032b565b610c306108d5565b6000805460ff60a01b1916600160a01b1790557f62e78cea01bee320cd4e420270b5ea74000d11b0c9f74754ebdbfc544b05a258610c6b3390565b6040516001600160a01b03909116815260200160405180910390a1565b600080546001600160a01b038381166001600160a01b0319831681178455604051919092169283917f8be0079c531659141344cd1fd0a4f28419497f9722a3daafe3b4186f6b6457e09190a35050565b610ce0610e20565b6000805460ff60a01b191690557f5db9ee0a495bf2e6ff9c91a7834c1ba4fdd244a5e8aa4e537bd38aeae4b073aa33610c6b565b6000601482511015610d625760405162461bcd60e51b8152602060048201526017602482015276125b9c1d5d0819185d18481a5cc81d1bdbc81cda1bdc9d604a1b604482015260640161032b565b506014015190565b6000601482511015610db85760405162461bcd60e51b8152602060048201526017602482015276125b9c1d5d0819185d18481a5cc81d1bdbc81cda1bdc9d604a1b604482015260640161032b565b508051015190565b604080516001600160a01b0385811660248301528416604482015260648082018490528251808303909101815260849091019091526020810180516001600160e01b03166323b872dd60e01b179052610e1a908590610e70565b50505050565b600054600160a01b900460ff166106d05760405162461bcd60e51b815260206004820152601460248201527314185d5cd8589b194e881b9bdd081c185d5cd95960621b604482015260640161032b565b6000610ec5826040518060400160405280602081526020017f5361666545524332303a206c6f772d6c6576656c2063616c6c206661696c6564815250856001600160a01b0316610f4a9092919063ffffffff16565b9050805160001480610ee6575080806020019051810190610ee6919061160c565b610f455760405162461bcd60e51b815260206004820152602a60248201527f5361666545524332303a204552433230206f7065726174696f6e20646964206e6044820152691bdd081cdd58d8d9595960b21b606482015260840161032b565b505050565b6060610f598484600085610f61565b949350505050565b606082471015610fc25760405162461bcd60e51b815260206004820152602660248201527f416464726573733a20696e73756666696369656e742062616c616e636520666f6044820152651c8818d85b1b60d21b606482015260840161032b565b600080866001600160a01b03168587604051610fde919061164d565b60006040518083038185875af1925050503d806000811461101b576040519150601f19603f3d011682016040523d82523d6000602084013e611020565b606091505b50915091506110318783838761103c565b979650505050505050565b606083156110ab5782516000036110a4576001600160a01b0385163b6110a45760405162461bcd60e51b815260206004820152601d60248201527f416464726573733a2063616c6c20746f206e6f6e2d636f6e7472616374000000604482015260640161032b565b5081610f59565b610f5983838151156110c05781518083602001fd5b8060405162461bcd60e51b815260040161032b9190611669565b60008083601f8401126110ec57600080fd5b50813567ffffffffffffffff81111561110457600080fd5b6020830191508360208260051b850101111561111f57600080fd5b9250929050565b80151581146108d257600080fd5b803561113f81611126565b919050565b600080600080600080600080600080600060e08c8e03121561116557600080fd5b67ffffffffffffffff808d35111561117c57600080fd5b6111898e8e358f016110da565b909c509a5060208d013581101561119f57600080fd5b6111af8e60208f01358f016110da565b909a50985060408d01358110156111c557600080fd5b6111d58e60408f01358f016110da565b909850965060608d01358110156111eb57600080fd5b506111fc8d60608e01358e016110da565b909550935060808c0135925061121460a08d01611134565b915061122260c08d01611134565b90509295989b509295989b9093969950565b60008083601f84011261124657600080fd5b50813567ffffffffffffffff81111561125e57600080fd5b60208301915083602082850101111561111f57600080fd5b80356001600160a01b038116811461113f57600080fd5b6000806000604084860312156112a257600080fd5b833567ffffffffffffffff8111156112b957600080fd5b6112c586828701611234565b90945092506112d8905060208501611276565b90509250925092565b600080602083850312156112f457600080fd5b823567ffffffffffffffff81111561130b57600080fd5b61131785828601611234565b90969095509350505050565b634e487b7160e01b600052604160045260246000fd5b60006020828403121561134b57600080fd5b813567ffffffffffffffff8082111561136357600080fd5b818401915084601f83011261137757600080fd5b81358181111561138957611389611323565b604051601f8201601f19908116603f011681019083821181831017156113b1576113b1611323565b816040528281528760208487010111156113ca57600080fd5b826020860160208301376000928101602001929092525095945050505050565b600080600080600080600080600060e08a8c03121561140857600080fd5b893567ffffffffffffffff8082111561142057600080fd5b61142c8d838e01611234565b909b50995060208c013591508082111561144557600080fd5b506114528c828d01611234565b90985096505060408a0135945060608a0135935060808a0135925060a08a013561147b81611126565b915060c08a013561148b81611126565b809150509295985092959850929598565b6000602082840312156114ae57600080fd5b6107cd82611276565b634e487b7160e01b600052603260045260246000fd5b6000808335601e198436030181126114e457600080fd5b83018035915067ffffffffffffffff8211156114ff57600080fd5b60200191503681900382131561111f57600080fd5b8183823760009101908152919050565b6020808252601f908201527f457461537761703a20414441505445525f444f45535f4e4f545f455849535400604082015260600190565b600060ff821660ff810361157f57634e487b7160e01b600052601160045260246000fd5b60010192915050565b60006020828403121561159a57600080fd5b815160ff811681146107cd57600080fd5b6001600160a01b038816815260c0602082018190528101869052858760e0830137600060e08783010152600060e0601f19601f890116830101905085604083015284606083015283608083015282151560a083015298975050505050505050565b60006020828403121561161e57600080fd5b81516107cd81611126565b60005b8381101561164457818101518382015260200161162c565b50506000910152565b6000825161165f818460208701611629565b9190910192915050565b6020815260008251806020840152611688816040850160208701611629565b601f01601f1916919091016040019291505056fea264697066735822122022668dd801b29a61ba8bcf2290589428eb771db73445d0e96456c2c2272f9d6164736f6c63430008130033",
  "linkReferences": {},
  "deployedLinkReferences": {}
}