{
  "_format": "hh-sol-artifact-1",
  "contractName": "Exchange",
  "sourceName": "contracts/solidity/Exchange.sol",
  "abi": [
    {
      "anonymous": false,
      "inputs": [
        {
          "indexed": true,
          "internalType": "string",
          "name": "aggregatorId",
          "type": "string"
        }
      ],
      "name": "AdapterRemoved",
      "type": "event"
    },
    {
      "anonymous": false,
      "inputs": [
        {
          "indexed": true,
          "internalType": "string",
          "name": "aggregatorId",
          "type": "string"
        },
        {
          "indexed": true,
          "internalType": "address",
          "name": "addr",
          "type": "address"
        }
      ],
      "name": "AdapterSet",
      "type": "event"
    },
    {
      "anonymous": false,
      "inputs": [
        {
          "indexed": true,
          "internalType": "address",
          "name": "previousOwner",
          "type": "address"
        },
        {
          "indexed": true,
          "internalType": "address",
          "name": "newOwner",
          "type": "address"
        }
      ],
      "name": "OwnershipTransferred",
      "type": "event"
    },
    {
      "anonymous": false,
      "inputs": [
        {
          "indexed": false,
          "internalType": "address",
          "name": "account",
          "type": "address"
        }
      ],
      "name": "Paused",
      "type": "event"
    },
    {
      "anonymous": false,
      "inputs": [
        {
          "indexed": true,
          "internalType": "string",
          "name": "aggregatorId",
          "type": "string"
        },
        {
          "indexed": true,
          "internalType": "contract IERC20",
          "name": "tokenFrom",
          "type": "address"
        },
        {
          "indexed": true,
          "internalType": "contract IERC20",
          "name": "tokenTo",
          "type": "address"
        },
        {
          "indexed": false,
          "internalType": "uint256",
          "name": "amountFrom",
          "type": "uint256"
        },
        {
          "indexed": false,
          "internalType": "uint256",
          "name": "amountTo",
          "type": "uint256"
        },
        {
          "indexed": false,
          "internalType": "address",
          "name": "sender",
          "type": "address"
        }
      ],
      "name": "Swap",
      "type": "event"
    },
    {
      "anonymous": false,
      "inputs": [
        {
          "indexed": false,
          "internalType": "address",
          "name": "account",
          "type": "address"
        }
      ],
      "name": "Unpaused",
      "type": "event"
    },
    {
      "inputs": [
        {
          "internalType": "string",
          "name": "aggregatorId",
          "type": "string"
        }
      ],
      "name": "adapterFee",
      "outputs": [
        {
          "internalType": "uint8",
          "name": "fee",
          "type": "uint8"
        }
      ],
      "stateMutability": "view",
      "type": "function"
    },
    {
      "inputs": [
        {
          "internalType": "string",
          "name": "",
          "type": "string"
        }
      ],
      "name": "adapterRemoved",
      "outputs": [
        {
          "internalType": "bool",
          "name": "",
          "type": "bool"
        }
      ],
      "stateMutability": "view",
      "type": "function"
    },
    {
      "inputs": [
        {
          "internalType": "string",
          "name": "",
          "type": "string"
        }
      ],
      "name": "adapters",
      "outputs": [
        {
          "internalType": "address",
          "name": "",
          "type": "address"
        }
      ],
      "stateMutability": "view",
      "type": "function"
    },
    {
      "inputs": [],
      "name": "owner",
      "outputs": [
        {
          "internalType": "address",
          "name": "",
          "type": "address"
        }
      ],
      "stateMutability": "view",
      "type": "function"
    },
    {
      "inputs": [],
      "name": "pauseSwaps",
      "outputs": [],
      "stateMutability": "nonpayable",
      "type": "function"
    },
    {
      "inputs": [],
      "name": "paused",
      "outputs": [
        {
          "internalType": "bool",
          "name": "",
          "type": "bool"
        }
      ],
      "stateMutability": "view",
      "type": "function"
    },
    {
      "inputs": [
        {
          "internalType": "string",
          "name": "aggregatorId",
          "type": "string"
        }
      ],
      "name": "removeAdapter",
      "outputs": [],
      "stateMutability": "nonpayable",
      "type": "function"
    },
    {
      "inputs": [],
      "name": "renounceOwnership",
      "outputs": [],
      "stateMutability": "nonpayable",
      "type": "function"
    },
    {
      "inputs": [
        {
          "internalType": "string",
          "name": "aggregatorId",
          "type": "string"
        },
        {
          "internalType": "address",
          "name": "addr",
          "type": "address"
        }
      ],
      "name": "setAdapter",
      "outputs": [],
      "stateMutability": "nonpayable",
      "type": "function"
    },
    {
      "inputs": [
        {
          "internalType": "string[]",
          "name": "aggregatorIds",
          "type": "string[]"
        },
        {
          "internalType": "bytes[]",
          "name": "paths",
          "type": "bytes[]"
        },
        {
          "internalType": "uint256[]",
          "name": "amountsFrom",
          "type": "uint256[]"
        },
        {
          "internalType": "uint256[]",
          "name": "amountsTo",
          "type": "uint256[]"
        },
        {
          "internalType": "uint256",
          "name": "deadline",
          "type": "uint256"
        },
        {
          "internalType": "bool",
          "name": "isTokenFromHBAR",
          "type": "bool"
        },
        {
          "internalType": "bool",
          "name": "feeOnTransfer",
          "type": "bool"
        }
      ],
      "name": "splitSwap",
      "outputs": [],
      "stateMutability": "payable",
      "type": "function"
    },
    {
      "inputs": [
        {
          "internalType": "string",
          "name": "aggregatorId",
          "type": "string"
        },
        {
          "internalType": "bytes",
          "name": "path",
          "type": "bytes"
        },
        {
          "internalType": "uint256",
          "name": "amountFrom",
          "type": "uint256"
        },
        {
          "internalType": "uint256",
          "name": "amountTo",
          "type": "uint256"
        },
        {
          "internalType": "uint256",
          "name": "deadline",
          "type": "uint256"
        },
        {
          "internalType": "bool",
          "name": "isTokenFromHBAR",
          "type": "bool"
        },
        {
          "internalType": "bool",
          "name": "feeOnTransfer",
          "type": "bool"
        }
      ],
      "name": "swap",
      "outputs": [],
      "stateMutability": "payable",
      "type": "function"
    },
    {
      "inputs": [
        {
          "internalType": "address",
          "name": "newOwner",
          "type": "address"
        }
      ],
      "name": "transferOwnership",
      "outputs": [],
      "stateMutability": "nonpayable",
      "type": "function"
    },
    {
      "inputs": [],
      "name": "unpauseSwaps",
      "outputs": [],
      "stateMutability": "nonpayable",
      "type": "function"
    }
  ],
  "bytecode": "0x60808060405234610062576000543360018060a01b0382167f8be0079c531659141344cd1fd0a4f28419497f9722a3daafe3b4186f6b6457e0600080a36001600160a81b0319163360ff60a01b1916176000556001805561120d90816100688239f35b600080fdfe6080604052600436101561001257600080fd5b60003560e01c806328318a17146100e757806339122461146100e25780633ef11fd7146100dd578063558b7dd1146100d85780635c975abb146100d3578063715018a6146100ce5780638da5cb5b146100c95780639804a380146100c4578063b5268389146100bf578063b84f5d1e146100ba578063bad50a47146100b5578063bd134899146100b05763f2fde38b146100ab57600080fd5b610931565b61087c565b6107b0565b61076a565b61072b565b610557565b61052e565b6104d3565b6104ad565b610448565b61038d565b610228565b610147565b9181601f8401121561011c578235916001600160401b03831161011c576020808501948460051b01011161011c57565b600080fd5b8015150361011c57565b60a4359061013882610121565b565b60c4359061013882610121565b60e036600319011261011c576001600160401b0360043581811161011c576101739036906004016100ec565b9060243583811161011c5761018c9036906004016100ec565b60449291923585811161011c576101a79036906004016100ec565b60649291923596871161011c576101c56101e39736906004016100ec565b9390926101d061012b565b966101d961013a565b9860843597610c4c565b005b9181601f8401121561011c578235916001600160401b03831161011c576020838186019501011161011c57565b602435906001600160a01b038216820361011c57565b3461011c57604036600319011261011c576004356001600160401b03811161011c576102589036906004016101e5565b90610261610212565b91823b1561031a578061029061028b6102876102806102f09587610a5f565b5460ff1690565b1590565b610a91565b6001600160a01b03926102be846102b76102aa8585610a78565b546001600160a01b031690565b1615610add565b6102eb856102cc8484610a78565b80546001600160a01b0319166001600160a01b03909216919091179055565b610b29565b9116907ff9648cbc19f288e0f271f7e95311238912bf1ea8225e636a13bb1d2591260021600080a3005b60405162461bcd60e51b815260206004820152601f60248201527f457461537761703a20414441505445525f4e4f545f415f434f4e5452414354006044820152606490fd5b602060031982011261011c57600435906001600160401b03821161011c57610389916004016101e5565b9091565b3461011c5761041661039e3661035f565b906103a76109c0565b6103d26040518383823760028185019081528190036020019020546001600160a01b03161515610b3e565b6040518282823760208184810160028152030190206bffffffffffffffffffffffff60a01b81541690556104068282610a5f565b805460ff19166001179055610b29565b7fb00061f7cc154fc23eb34671ab724fc7eb7b806abae871abae8f1eafce972135600080a2005b600091031261011c57565b3461011c576000806003193601126104aa576104626109c0565b61046a610baf565b805460ff60a01b1916600160a01b1781556040513381527f62e78cea01bee320cd4e420270b5ea74000d11b0c9f74754ebdbfc544b05a25890602090a180f35b80fd5b3461011c57600036600319011261011c57602060ff60005460a01c166040519015158152f35b3461011c576000806003193601126104aa576104ed6109c0565b80546001600160a01b03198116825581906001600160a01b03167f8be0079c531659141344cd1fd0a4f28419497f9722a3daafe3b4186f6b6457e08280a380f35b3461011c57600036600319011261011c576000546040516001600160a01b039091168152602090f35b3461011c576000806003193601126104aa576105716109c0565b805460ff8160a01c16156105b75760ff60a01b191681556040513381527f5db9ee0a495bf2e6ff9c91a7834c1ba4fdd244a5e8aa4e537bd38aeae4b073aa90602090a180f35b60405162461bcd60e51b815260206004820152601460248201527314185d5cd8589b194e881b9bdd081c185d5cd95960621b6044820152606490fd5b634e487b7160e01b600052604160045260246000fd5b6001600160401b03811161061c57604052565b6105f3565b60a081019081106001600160401b0382111761061c57604052565b604081019081106001600160401b0382111761061c57604052565b90601f801991011681019081106001600160401b0382111761061c57604052565b6001600160401b03811161061c57601f01601f191660200190565b92919261069f82610678565b916106ad6040519384610657565b82948184528183011161011c578281602093846000960137010152565b602060031982011261011c57600435906001600160401b03821161011c578060238301121561011c5781602461070593600401359101610693565b90565b60005b83811061071b5750506000910152565b818101518382015260200161070b565b3461011c57602060ff61075482610741366106ca565b8160405193828580945193849201610708565b8101600381520301902054166040519015158152f35b3461011c57602061077a366106ca565b8161078e6040519283815193849201610708565b600290820190815281900382019020546040516001600160a01b039091168152f35b3461011c576004602061080a6107fe6107fe6102aa6107ce3661035f565b906107f960405183838237600284820190815281900389019020546001600160a01b03161515610b3e565b610a78565b6001600160a01b031690565b60405163dc3ef68560e01b815292839182905afa80156108775761084591600091610849575b5060405160ff90911681529081906020820190565b0390f35b61086a915060203d8111610870575b6108628183610657565b810190610b8a565b38610830565b503d610858565b610ba3565b60e036600319011261011c576001600160401b0360043581811161011c576108a89036906004016101e5565b9060243592831161011c576108c461092b9336906004016101e5565b9260a435926108d284610121565b60c435946108df86610121565b6108e7610baf565b6108ef610bf6565b61091a6040518484823760028186019081528190036020019020546001600160a01b03161515610b3e565b608435936064359360443593610de2565b60018055005b3461011c57602036600319011261011c576004356001600160a01b03811680820361011c5761095e6109c0565b1561096c576101e390610a18565b60405162461bcd60e51b815260206004820152602660248201527f4f776e61626c653a206e6577206f776e657220697320746865207a65726f206160448201526564647265737360d01b6064820152608490fd5b6000546001600160a01b031633036109d457565b606460405162461bcd60e51b815260206004820152602060248201527f4f776e61626c653a2063616c6c6572206973206e6f7420746865206f776e65726044820152fd5b600080546001600160a01b039283166001600160a01b03198216811783559216907f8be0079c531659141344cd1fd0a4f28419497f9722a3daafe3b4186f6b6457e09080a3565b6020908260405193849283378101600381520301902090565b6020908260405193849283378101600281520301902090565b15610a9857565b60405162461bcd60e51b815260206004820152601860248201527f457461537761703a20414441505445525f52454d4f56454400000000000000006044820152606490fd5b15610ae457565b60405162461bcd60e51b815260206004820152601760248201527f457461537761703a20414441505445525f4558495354530000000000000000006044820152606490fd5b81604051928392833781016000815203902090565b15610b4557565b60405162461bcd60e51b815260206004820152601f60248201527f457461537761703a20414441505445525f444f45535f4e4f545f4558495354006044820152606490fd5b9081602091031261011c575160ff8116810361011c5790565b6040513d6000823e3d90fd5b60ff60005460a01c16610bbe57565b60405162461bcd60e51b815260206004820152601060248201526f14185d5cd8589b194e881c185d5cd95960821b6044820152606490fd5b600260015414610c07576002600155565b60405162461bcd60e51b815260206004820152601f60248201527f5265656e7472616e637947756172643a207265656e7472616e742063616c6c006044820152606490fd5b999795939194929099989698610c60610baf565b610c68610bf6565b6000998a5b60ff81168d811015610d11578b8b8f8b8b8b8f938b610ce2898f93610cdb8f9c8f9281610ce99f818382610cc6610cbd610cae85610cd399610ccb98610d3b565b6001600160a01b039291610a78565b54161515610b3e565b610d3b565b98909c610d3b565b989097610d81565b3596610d81565b3594610de2565b60ff809116908114610cfd57600101610c6d565b634e487b7160e01b8c52601160045260248cfd5b505050505050505050505050505060018055565b634e487b7160e01b600052603260045260246000fd5b9190811015610d7c5760051b81013590601e198136030182121561011c5701908135916001600160401b03831161011c57602001823603811361011c579190565b610d25565b9190811015610d7c5760051b0190565b95928060a0969360e0939a99969a6001808a1b0316895260c060208a01528160c08a0152838901376000828289010152601f8019910116860101966040860152606085015260808401521515910152565b9496979395610df46102aa8388610a78565b948015610f3357610e0e610e09368787610693565b6111c2565b995b8115610f1f57610e29610e24368888610693565b6111ad565b955b8b8a898415610f0c575b506001600160a01b03998a169360009250159050610f075750895b823b1561011c578b96610e7f8c956000976040519a8b9889978896632f1525ad60e01b88523360048901610d91565b03925af1908115610877577fd6e2df47c5d5e51f1a721ce578abf9db5ded63bd770da8e0d34a4a801a1fca0b95610ee993610ebf93610eee575b50610b29565b60408051968752602087019790975233968601969096529082169590911693929081906060820190565b0390a4565b80610efb610f0192610609565b8061043d565b38610eb9565b610e50565b610f17923390610f47565b8b8a89610e35565b610f2d610e09368888610693565b95610e2b565b610f41610e24368787610693565b99610e10565b610ffb91600080610138969560405194602097888701956323b872dd60e01b875260018060a01b03938480921660248a0152166044880152606487015260648652610f9186610621565b169260405194610fa08661063c565b8786527f5361666545524332303a206c6f772d6c6576656c2063616c6c206661696c656488870152519082855af13d15611028573d91610fdf83610678565b92610fed6040519485610657565b83523d60008785013e6110f0565b8051918215928315611010575b505050611045565b6110209350820181019101611030565b388080611008565b6060916110f0565b9081602091031261011c575161070581610121565b1561104c57565b60405162461bcd60e51b815260206004820152602a60248201527f5361666545524332303a204552433230206f7065726174696f6e20646964206e6044820152691bdd081cdd58d8d9595960b21b6064820152608490fd5b156110ab57565b60405162461bcd60e51b815260206004820152601d60248201527f416464726573733a2063616c6c20746f206e6f6e2d636f6e74726163740000006044820152606490fd5b919290156111105750815115611104575090565b610705903b15156110a4565b8251909150156111235750805190602001fd5b6044604051809262461bcd60e51b8252602060048301526111538151809281602486015260208686019101610708565b601f01601f19168101030190fd5b1561116857565b60405162461bcd60e51b815260206004820152601760248201527f496e707574206461746120697320746f6f2073686f72740000000000000000006044820152606490fd5b6014906111bd8282511015611161565b015190565b6111d0601482511015611161565b805101519056fea264697066735822122045864cf5c2b2aa952dc8b730bc6178dd89b409cd10afec52155b6223b2804e5664736f6c63430008130033",
  "linkReferences": {},
  "deployedLinkReferences": {}
}