{
  "_format": "hh-sol-artifact-1",
  "contractName": "SaucerSwapV2Adapter",
  "sourceName": "contracts/solidity/adapters/SaucerSwapV2Adapter.sol",
  "abi": [
    {
      "inputs": [
        {
          "internalType": "address payable",
          "name": "_feeWallet",
          "type": "address"
        },
        {
          "internalType": "contract IUniswapV3Router",
          "name": "_router",
          "type": "address"
        },
        {
          "internalType": "uint8",
          "name": "_feePromille",
          "type": "uint8"
        },
        {
          "internalType": "contract IERC20",
          "name": "_whbarToken",
          "type": "address"
        },
        {
          "internalType": "contract IWHBAR",
          "name": "_whbarContract",
          "type": "address"
        }
      ],
      "stateMutability": "nonpayable",
      "type": "constructor"
    },
    {
      "anonymous": false,
      "inputs": [
        {
          "indexed": true,
          "internalType": "address",
          "name": "previousOwner",
          "type": "address"
        },
        {
          "indexed": true,
          "internalType": "address",
          "name": "newOwner",
          "type": "address"
        }
      ],
      "name": "OwnershipTransferred",
      "type": "event"
    },
    {
      "stateMutability": "payable",
      "type": "fallback"
    },
    {
      "inputs": [],
      "name": "feePromille",
      "outputs": [
        {
          "internalType": "uint8",
          "name": "",
          "type": "uint8"
        }
      ],
      "stateMutability": "view",
      "type": "function"
    },
    {
      "inputs": [],
      "name": "feeWallet",
      "outputs": [
        {
          "internalType": "address payable",
          "name": "",
          "type": "address"
        }
      ],
      "stateMutability": "view",
      "type": "function"
    },
    {
      "inputs": [],
      "name": "owner",
      "outputs": [
        {
          "internalType": "address",
          "name": "",
          "type": "address"
        }
      ],
      "stateMutability": "view",
      "type": "function"
    },
    {
      "inputs": [],
      "name": "renounceOwnership",
      "outputs": [],
      "stateMutability": "nonpayable",
      "type": "function"
    },
    {
      "inputs": [],
      "name": "router",
      "outputs": [
        {
          "internalType": "contract IUniswapV3Router",
          "name": "",
          "type": "address"
        }
      ],
      "stateMutability": "view",
      "type": "function"
    },
    {
      "inputs": [
        {
          "internalType": "uint8",
          "name": "_feePromille",
          "type": "uint8"
        }
      ],
      "name": "setFeePromille",
      "outputs": [],
      "stateMutability": "nonpayable",
      "type": "function"
    },
    {
      "inputs": [
        {
          "internalType": "address payable",
          "name": "recipient",
          "type": "address"
        },
        {
          "internalType": "bytes",
          "name": "path",
          "type": "bytes"
        },
        {
          "internalType": "uint256",
          "name": "amountFrom",
          "type": "uint256"
        },
        {
          "internalType": "uint256",
          "name": "amountTo",
          "type": "uint256"
        },
        {
          "internalType": "uint256",
          "name": "deadline",
          "type": "uint256"
        },
        {
          "internalType": "bool",
          "name": "feeOnTransfer",
          "type": "bool"
        }
      ],
      "name": "swap",
      "outputs": [],
      "stateMutability": "payable",
      "type": "function"
    },
    {
      "inputs": [
        {
          "internalType": "address",
          "name": "newOwner",
          "type": "address"
        }
      ],
      "name": "transferOwnership",
      "outputs": [],
      "stateMutability": "nonpayable",
      "type": "function"
    },
    {
      "inputs": [],
      "name": "whbarContract",
      "outputs": [
        {
          "internalType": "contract IWHBAR",
          "name": "",
          "type": "address"
        }
      ],
      "stateMutability": "view",
      "type": "function"
    },
    {
      "inputs": [],
      "name": "whbarToken",
      "outputs": [
        {
          "internalType": "contract IERC20",
          "name": "",
          "type": "address"
        }
      ],
      "stateMutability": "view",
      "type": "function"
    },
    {
      "stateMutability": "payable",
      "type": "receive"
    }
  ],
  "bytecode": "0x60c06040523480156200001157600080fd5b506040516200174e3803806200174e833981016040819052620000349162000104565b6200003f336200009b565b6001600160a01b0394851660a0529284166080526000805460ff909316600160a01b0260ff60a01b1990931692909217909155600180549184166001600160a01b03199283161790556002805492909316911617905562000189565b600080546001600160a01b038381166001600160a01b0319831681178455604051919092169283917f8be0079c531659141344cd1fd0a4f28419497f9722a3daafe3b4186f6b6457e09190a35050565b6001600160a01b03811681146200010157600080fd5b50565b600080600080600060a086880312156200011d57600080fd5b85516200012a81620000eb565b60208701519095506200013d81620000eb565b604087015190945060ff811681146200015557600080fd5b60608701519093506200016881620000eb565b60808701519092506200017b81620000eb565b809150509295509295909350565b60805160a05161152f6200021f6000396000818161019c01526103de0152600081816101f0015281816104a00152818161050b015281816105890152818161061b01528181610657015281816106ee015281816107400152818161077c01528181610887015281816108f20152818161098f015281816109cb01528181610a6201528181610ad10152610b0d015261152f6000f3fe60806040526004361061008f5760003560e01c8063dc3ef68511610056578063dc3ef68514610137578063e5d128551461016a578063f25f4b561461018a578063f2fde38b146101be578063f887ea40146101de57005b80632f1525ad14610098578063715018a6146100ab5780638da5cb5b146100c0578063a6917442146100f7578063be7dd9821461011757005b3661009657005b005b6100966100a636600461127e565b610212565b3480156100b757600080fd5b50610096610bb0565b3480156100cc57600080fd5b506000546001600160a01b03165b6040516001600160a01b0390911681526020015b60405180910390f35b34801561010357600080fd5b506002546100da906001600160a01b031681565b34801561012357600080fd5b50610096610132366004611331565b610bc4565b34801561014357600080fd5b5060005461015890600160a01b900460ff1681565b60405160ff90911681526020016100ee565b34801561017657600080fd5b506001546100da906001600160a01b031681565b34801561019657600080fd5b506100da7f000000000000000000000000000000000000000000000000000000000000000081565b3480156101ca57600080fd5b506100966101d936600461135b565b610bec565b3480156101ea57600080fd5b506100da7f000000000000000000000000000000000000000000000000000000000000000081565b60008161025d5761025887878080601f016020809104026020016040519081016040528093929190818152602001838380828437600092019190915250610c6592505050565b61029c565b61029c87878080601f016020809104026020016040519081016040528093929190818152602001838380828437600092019190915250610cbb92505050565b90506000826102e9576102e488888080601f016020809104026020016040519081016040528093929190818152602001838380828437600092019190915250610cbb92505050565b610328565b61032888888080601f016020809104026020016040519081016040528093929190818152602001838380828437600092019190915250610c6592505050565b9050806001600160a01b0316826001600160a01b0316036103905760405162461bcd60e51b815260206004820152601b60248201527f457461537761703a20544f4b454e5f504149525f494e56414c4944000000000060448201526064015b60405180910390fd5b600080546001546103e89160ff600160a01b90910416906001600160a01b038681169116146103bf57886103c1565b345b6103cb919061138e565b6103d591906113ab565b905061040283827f0000000000000000000000000000000000000000000000000000000000000000610d11565b60015460009082906001600160a01b038681169116146104225788610424565b345b61042e91906113cd565b9050841561081d576000806040518060a001604052808d8d8080601f0160208091040260200160405190810160405280939291908181526020018383808284376000920191909152505050908252506001546020909101906001600160a01b0388811691161461049e57306104c0565b7f00000000000000000000000000000000000000000000000000000000000000005b6001600160a01b039081168252602082018b9052604082018c90526060909101859052600154919250908116908716036105ff57604051631e51809360e31b81526001600160a01b037f0000000000000000000000000000000000000000000000000000000000000000169063f28c0498908590610542908590600401611481565b60206040518083038185885af1158015610560573d6000803e3d6000fd5b50505050506040513d601f19601f820116820180604052508101906105859190611494565b91507f00000000000000000000000000000000000000000000000000000000000000006001600160a01b03166312210e8a6040518163ffffffff1660e01b8152600401600060405180830381600087803b1580156105e257600080fd5b505af11580156105f6573d6000803e3d6000fd5b505050506107f7565b6001546001600160a01b039081169086160361073a57610640867f000000000000000000000000000000000000000000000000000000000000000085610e09565b604051631e51809360e31b81526001600160a01b037f0000000000000000000000000000000000000000000000000000000000000000169063f28c04989061068c908490600401611481565b6020604051808303816000875af11580156106ab573d6000803e3d6000fd5b505050506040513d601f19601f820116820180604052508101906106cf9190611494565b604051635fb043af60e01b8152600481018b90523060248201529092507f00000000000000000000000000000000000000000000000000000000000000006001600160a01b031690635fb043af90604401600060405180830381600087803b1580156105e257600080fd5b610765867f000000000000000000000000000000000000000000000000000000000000000085610e09565b604051631e51809360e31b81526001600160a01b037f0000000000000000000000000000000000000000000000000000000000000000169063f28c0498906107b1908490600401611481565b6020604051808303816000875af11580156107d0573d6000803e3d6000fd5b505050506040513d601f19601f820116820180604052508101906107f49190611494565b91505b610802858a8f610d11565b6108168661081084866113cd565b8f610d11565b5050610ba3565b6000806040518060a001604052808d8d8080601f0160208091040260200160405190810160405280939291908181526020018383808284376000920191909152505050908252506001546020909101906001600160a01b0388811691161461088557306108a7565b7f00000000000000000000000000000000000000000000000000000000000000005b6001600160a01b039081168252602082018b90526040820186905260609091018b9052600154919250908116908716036109735760405163c04b8d5960e01b81526001600160a01b037f0000000000000000000000000000000000000000000000000000000000000000169063c04b8d59908590610929908590600401611481565b60206040518083038185885af1158015610947573d6000803e3d6000fd5b50505050506040513d601f19601f8201168201806040525081019061096c9190611494565b9150610b88565b6001546001600160a01b0390811690861603610acb576109b4867f000000000000000000000000000000000000000000000000000000000000000085610e09565b60405163c04b8d5960e01b81526001600160a01b037f0000000000000000000000000000000000000000000000000000000000000000169063c04b8d5990610a00908490600401611481565b6020604051808303816000875af1158015610a1f573d6000803e3d6000fd5b505050506040513d601f19601f82011682018060405250810190610a439190611494565b604051635fb043af60e01b8152600481018290523060248201529092507f00000000000000000000000000000000000000000000000000000000000000006001600160a01b031690635fb043af90604401600060405180830381600087803b158015610aae57600080fd5b505af1158015610ac2573d6000803e3d6000fd5b50505050610b88565b610af6867f000000000000000000000000000000000000000000000000000000000000000085610e09565b60405163c04b8d5960e01b81526001600160a01b037f0000000000000000000000000000000000000000000000000000000000000000169063c04b8d5990610b42908490600401611481565b6020604051808303816000875af1158015610b61573d6000803e3d6000fd5b505050506040513d601f19601f82011682018060405250810190610b859190611494565b91505b88821015610b9557600080fd5b610ba085838f610d11565b50505b5050505050505050505050565b610bb8610f01565b610bc26000610f5b565b565b610bcc610f01565b6000805460ff909216600160a01b0260ff60a01b19909216919091179055565b610bf4610f01565b6001600160a01b038116610c595760405162461bcd60e51b815260206004820152602660248201527f4f776e61626c653a206e6577206f776e657220697320746865207a65726f206160448201526564647265737360d01b6064820152608401610387565b610c6281610f5b565b50565b6000601482511015610cb35760405162461bcd60e51b8152602060048201526017602482015276125b9c1d5d0819185d18481a5cc81d1bdbc81cda1bdc9d604a1b6044820152606401610387565b506014015190565b6000601482511015610d095760405162461bcd60e51b8152602060048201526017602482015276125b9c1d5d0819185d18481a5cc81d1bdbc81cda1bdc9d604a1b6044820152606401610387565b508051015190565b8115610e04576001546001600160a01b0390811690841603610df057604080516000808252602082019092526001600160a01b038316908490604051610d5791906114ad565b60006040518083038185875af1925050503d8060008114610d94576040519150601f19603f3d011682016040523d82523d6000602084013e610d99565b606091505b5050905080610dea5760405162461bcd60e51b815260206004820152601d60248201527f457461537761703a20484241525f5452414e534645525f4641494c45440000006044820152606401610387565b50505050565b610e046001600160a01b0384168284610fab565b505050565b604051636eb1769f60e11b81523060048201526001600160a01b0383811660248301526000919085169063dd62ed3e90604401602060405180830381865afa158015610e59573d6000803e3d6000fd5b505050506040513d601f19601f82011682018060405250810190610e7d9190611494565b905081811015610dea5760405163095ea7b360e01b81526001600160a01b0384811660048301526024820184905285169063095ea7b3906044016020604051808303816000875af1158015610ed6573d6000803e3d6000fd5b505050506040513d601f19601f82011682018060405250810190610efa91906114c9565b5050505050565b6000546001600160a01b03163314610bc25760405162461bcd60e51b815260206004820181905260248201527f4f776e61626c653a2063616c6c6572206973206e6f7420746865206f776e65726044820152606401610387565b600080546001600160a01b038381166001600160a01b0319831681178455604051919092169283917f8be0079c531659141344cd1fd0a4f28419497f9722a3daafe3b4186f6b6457e09190a35050565b604080516001600160a01b03848116602483015260448083018590528351808403909101815260649092018352602080830180516001600160e01b031663a9059cbb60e01b17905283518085019094528084527f5361666545524332303a206c6f772d6c6576656c2063616c6c206661696c656490840152610e049286929160009161103b9185169084906110bb565b905080516000148061105c57508080602001905181019061105c91906114c9565b610e045760405162461bcd60e51b815260206004820152602a60248201527f5361666545524332303a204552433230206f7065726174696f6e20646964206e6044820152691bdd081cdd58d8d9595960b21b6064820152608401610387565b60606110ca84846000856110d2565b949350505050565b6060824710156111335760405162461bcd60e51b815260206004820152602660248201527f416464726573733a20696e73756666696369656e742062616c616e636520666f6044820152651c8818d85b1b60d21b6064820152608401610387565b600080866001600160a01b0316858760405161114f91906114ad565b60006040518083038185875af1925050503d806000811461118c576040519150601f19603f3d011682016040523d82523d6000602084013e611191565b606091505b50915091506111a2878383876111ad565b979650505050505050565b6060831561121c578251600003611215576001600160a01b0385163b6112155760405162461bcd60e51b815260206004820152601d60248201527f416464726573733a2063616c6c20746f206e6f6e2d636f6e74726163740000006044820152606401610387565b50816110ca565b6110ca83838151156112315781518083602001fd5b8060405162461bcd60e51b815260040161038791906114e6565b6001600160a01b0381168114610c6257600080fd5b8015158114610c6257600080fd5b803561127981611260565b919050565b600080600080600080600060c0888a03121561129957600080fd5b87356112a48161124b565b9650602088013567ffffffffffffffff808211156112c157600080fd5b818a0191508a601f8301126112d557600080fd5b8135818111156112e457600080fd5b8b60208285010111156112f657600080fd5b60208301985080975050505060408801359350606088013592506080880135915061132360a0890161126e565b905092959891949750929550565b60006020828403121561134357600080fd5b813560ff8116811461135457600080fd5b9392505050565b60006020828403121561136d57600080fd5b81356113548161124b565b634e487b7160e01b600052601160045260246000fd5b80820281158282048414176113a5576113a5611378565b92915050565b6000826113c857634e487b7160e01b600052601260045260246000fd5b500490565b818103818111156113a5576113a5611378565b60005b838110156113fb5781810151838201526020016113e3565b50506000910152565b6000815180845261141c8160208601602086016113e0565b601f01601f19169290920160200192915050565b6000815160a0845261144560a0850182611404565b6020848101516001600160a01b031690860152604080850151908601526060808501519086015260809384015193909401929092525090919050565b6020815260006113546020830184611430565b6000602082840312156114a657600080fd5b5051919050565b600082516114bf8184602087016113e0565b9190910192915050565b6000602082840312156114db57600080fd5b815161135481611260565b602081526000611354602083018461140456fea26469706673582212206e93f37bcc4c5edbd4775921369edbbdf75fd78af7c9120e3f1fd88aabc6010164736f6c63430008130033",
  "linkReferences": {},
  "deployedLinkReferences": {}
}